:020000040800F2
:10000000280400205D040008590200085B02000873
:1000100000000000000000000000000000000000E0
:100020000000000000000000000000005F02000867
:1000300000000000000000006102000863020008E8
:100040006F0400086F0400086F0400086F040008C4
:100050006F0400086F0400086F0400086F040008B4
:100060006F0400086F0400086F0400086F040008A4
:100070006F0400086F0400086F0400086F04000894
:100080006F0400086F040008000000006F040008FF
:100090006F0400086F0400086F0400086F04000874
:1000A0006F0400086F0400086F0400086F04000864
:1000B0006F040008000000006F040008000000004A
:1000C0000348854601F03AFF00480047D500000884
:1000D000280400200EB5002601F056F800F0CCF9F7
:1000E00000F069FA5148AC23FF2241320021009010
:1000F000084600F03DFB0121C9030920C00601F0BC
:100100006EF992E04948AC23FF2241320021009071
:10011000084600F02DFB1F20C002AC23FF22413215
:1001200000210090084600F023FB3F204001AC2353
:10013000FF22413200210090084600F019FB1F20E9
:10014000AC23FF22413200210090084600F010FB52
:100150003648AC23FF22413200210090084600F0CF
:1001600007FB00202021314A1F23DB02009201916E
:1001700002902FA20146282000F026FE0020202118
:100180002A4A1F23DB020092019102902BA2212117
:100190000A2000F0F7FE202024491F22D202032368
:1001A000009201910290FF22413221216A2000F049
:1001B00012FF002020211D4A1F23DB020092019123
:1001C000029020A242210A2000F0DCFE20201749E4
:1001D0001F22D2020323009201910290AC224221FD
:1001E0006A2000F0F8FE202010491F22D2020423CA
:1001F000009201910290324663210A2000F03AFFFA
:10020000304601F0A7FD0446104A114B01F0DCFC1A
:100210000191009001F0B2FD06460E4828231A46CF
:100220005F210090A02000F076FF6BE7FFFF000049
:10023000D6D0BEB0D4B0B5E7D7D300004C43445FAE
:10024000573A00004C43445F483A0000295C8FC293
:10025000F528BC3FCE1F0008704700BFFEE770477F
:10026000704770470CB500200190009073480068FB
:100270000121090408437149086000BF6F48006804
:1002800001214904084000900198401C0190009809
:10029000002804D10521090201988842EED167485F
:1002A0000068012149040840002802D00120009084
:1002B00001E0002000900098012839D11120604908
:1002C00008605E4840685D4948600846406848608C
:1002D000084640683F210904884358494860084659
:1002E00040681121090408435449486008460068E1
:1002F0000121090608435149086000BF4F480068C2
:100300000121490608400028F8D04C484068800880
:1003100080004A494860084640680221084347492E
:10032000486000BF454840680C2108400828F9D1C2
:100330000CBD10B541480068012108433F490860E1
:10034000084640683F4908403C4948600846006804
:100350003D49084039490860084600680121890480
:10036000884336490860084640683F2109048843AD
:10037000324948600846C06A00090001C862084660
:10038000006BFF21543188432C4908630846406BB9
:1003900040084000486300208860FFF763FF10BDFD
:1003A000F8B50025002400260027244840680C21C9
:1003B00008400546002D04D0042D06D0082D2AD172
:1003C00007E022482249086029E0204820490860C7
:1003D00025E01A4840680F21890408400446174860
:1003E00040680121090408400646A00C841C002E28
:1003F00004D118486043164908600BE00F48C06AF2
:100400000007000F471C3946104801F075FB604398
:100410000F49086003E00D480D49086000BF00BFA8
:1004200006484068F021084000090B490D5C084867
:100430000068E84006490860F8BD0000001002406E
:10044000002002400CB8FFF8FFFFF6FE00127A0011
:100450000000002000093D000400002004488047FF
:1004600004480047FEE7FEE7FEE7FEE7FEE7FEE79B
:1004700033030008C10000081CB50121480401F045
:1004800062FA0120C00300900321684641710121F6
:1004900001710021817169460920C00600F020FF2A
:1004A0000121C9030920C00600F097FF1CBD1CB53F
:1004B0000121480401F047FA3F20009003216846DB
:1004C0004171012101710021817169460920C00635
:1004D00000F006FF3F210920C00600F07EFF1CBD92
:1004E00070B5044610210920C00600F078FF0025F1
:1004F0001CE001210920C00600F071FF802020408F
:10050000002805D002210920C00600F066FF04E0A3
:1005100002210920C00600F062FF01210920C00667
:1005200000F05BFF6006040E681CC5B2082DE0DB1E
:1005300010210920C00600F050FF70BD10B5044620
:100540002046FFF7CDFF10BD10B504462104080E6C
:10055000FFF7C6FFE0B2FFF7C3FF10BD10B50446BA
:1005600008210920C00600F03AFF2046FFF7B8FF37
:1005700008210920C00600F030FF10BDF8B507467D
:100580000C4615461E462A20FFF7E8FF3846FFF7BF
:10059000DBFF2846FFF7D8FF2B20FFF7DFFF2046C1
:1005A0002230FFF7D1FF30462230FFF7CDFF2C205D
:1005B000FFF7D4FFF8BD10B5FFF779FF042109203C
:1005C000C00600F00CFF1E2000F019FE04210920D7
:1005D000C00600F002FF642000F011FE2021092077
:1005E000C00600F0FAFE642000F009FE1120FFF7BB
:1005F000B5FF3620FFF7B2FF7020FFF79FFF3A20CC
:10060000FFF7ACFF0520FFF799FFB220FFF7A6FF29
:100610000C20FFF793FF0C20FFF790FF0020FFF75F
:100620008DFF3320FFF78AFF3320FFF787FFB720C6
:10063000FFF794FF3520FFF781FFBB20FFF78EFF08
:100640003520FFF77BFFC020FFF788FF2C20FFF746
:1006500075FFC220FFF782FF0120FFF76FFFC32065
:10066000FFF77CFF1320FFF769FFC420FFF776FF39
:100670002020FFF763FFC620FFF770FF0F20FFF772
:100680005DFFD020FFF76AFFA420FFF757FFA120EE
:10069000FFF754FFD620FFF761FFA120FFF74EFFC1
:1006A000E020FFF75BFFF020FFF748FF0020FFF797
:1006B00045FF0420FFF742FF0420FFF73FFF04201F
:1006C000FFF73CFF0520FFF739FF2920FFF736FF32
:1006D0003320FFF733FF3E20FFF730FF3820FFF7CE
:1006E0002DFF1220FFF72AFF1220FFF727FF2820F7
:1006F000FFF724FF3020FFF721FFE120FFF72EFF57
:10070000F020FFF71BFF0720FFF718FF0A20FFF775
:1007100015FF0D20FFF712FF0B20FFF70FFF07203B
:10072000FFF70CFF2820FFF709FF3320FFF706FF34
:100730003E20FFF703FF3620FFF700FF1420FFF7EE
:10074000FDFE1420FFF7FAFE2920FFF7F7FE322006
:10075000FFF7F4FE2120FFF701FF1120FFF7FEFE57
:10076000782000F04CFD2920FFF7F8FE10BD0000B6
:10077000FEB506460F4614461D466B1E621E3946E0
:100780003046FFF7FBFE01970DE0009605E0089864
:10079000FFF7DAFE0098401C00900098A042F6D3C4
:1007A0000198401C01900198A842EED3FEBD70B59F
:1007B00004460D4616462B46224629462046FFF79C
:1007C000DDFE3046FFF7C0FE70BDFFB587B00020EC
:1007D0000590049007990998451A08990A98461AAD
:1007E0000798029008980190002D01DD012706E08E
:1007F000002D01D1002702E00027FF436D42002EAB
:1008000002DD0120039008E0002E02D100200390B9
:1008100003E00020C04303907642B54201DD2C4640
:1008200000E034460020069020E0109A01990298DA
:10083000FFF7BDFF059840190590049880190490B2
:100840000598A04205DD0598001B05900298C01987
:1008500002900498A04206DD0498001B04900399BE
:100860000198401801900698401C0690611C06985B
:100870008842DAD30BB0F0BDFFB581B005460E4615
:1008800017460A9C33463A46314628460094FFF7FD
:100890009CFF00942A4631462846049BFFF795FFAB
:1008A00000943A46049B19462846FFF78EFF0094B1
:1008B0003A4631463846049BFFF787FF05B0F0BD46
:1008C000FFB581B006460F460024039D32E0391B78
:1008D000701B049AFFF76BFF391B7019049AFFF71E
:1008E00066FF7919301B049AFFF761FF791B301BF3
:1008F000049AFFF75CFF39197019049AFFF757FF44
:10090000791B3019049AFFF752FF79193019049AAC
:10091000FFF74DFF3919701B049AFFF748FF641C5D
:100920002046604329466943411803984043814269
:1009300000DD6D1EAC42CADD05B0F0BDFFB585B06F
:1009400006460F9C0020039000962046E217520FA7
:100950001218D2102146E3175B0F5B18DB10DB0087
:10096000E31A01D0012300E00023D2186243019270
:100970000520029000256BE082206843FE49095C57
:1009800007980078814261D182206843FA49401873
:10099000417807984078814258D106980019431E43
:1009A0003019421E30460699FFF7E8FD00274AE05D
:1009B0000020049041E0109800281FD18220684355
:1009C000ED494018801CC15D01220498824011400D
:1009D000002903D00898FFF7B7FD02E00E98FFF753
:1009E000B3FD0398401CC0B203902146039801F068
:1009F00099F800291DD10020039021E0822068434E
:100A0000DD494018801CC05D012204998A401040D5
:100A1000002804D03046089A0699FFF7C8FE761CD5
:100A20000098301AA04204D1009E0698401C0690FF
:100A300006E00498401CC0B2049004980828BADB71
:100A400000BF781CC7B201988742B1D300BF6D1CAC
:100A50000298854290D309B0F0BDFFB585B0064637
:100A60000F9C0020039000962046E217520F1218A8
:100A7000D2102146E3175B0F5B18DB10DB00E31A93
:100A800001D0012300E00023D21862430192052027
:100A9000029000256BE04A206843B849095C07983A
:100AA0000078814261D14A206843B44940184178B6
:100AB00007984078814258D106980019431E301992
:100AC000421E30460699FFF759FD00274AE00020F4
:100AD000049041E0109800281FD14A206843A7499C
:100AE0004018801CC15D01220498824011400029F9
:100AF00003D00898FFF728FD02E00E98FFF724FDC9
:100B00000398401CC0B203902146039801F00AF8F4
:100B100000291DD10020039021E04A206843974915
:100B20004018801CC05D012204998A4010400028B2
:100B300004D03046089A0699FFF739FE761C0098D3
:100B4000301AA04204D1009E0698401C069006E090
:100B50000498401CC0B2049004980828BADB00BF77
:100B6000781CC7B201988742B1D300BF6D1C0298B0
:100B7000854290D309B0F0BDFFB585B006460F9C05
:100B80000020039000962046E217520F1218D21050
:100B90002146E3175B0F5B18DB10DB00E31A01D083
:100BA000012300E00023D218624301920520029045
:100BB00000256BE0222068437149095C07980078A2
:100BC000814261D1222068436D49401841780798DD
:100BD0004078814258D106980019431E3019421EB0
:100BE00030460699FFF7CAFC00274AE0002004902F
:100BF00041E0109800281FD1222068436049401826
:100C0000801CC15D0122049882401140002903D05C
:100C10000898FFF799FC02E00E98FFF795FC0398FF
:100C2000401CC0B203902146039800F07BFF0029CE
:100C30001DD10020039021E0222068435049401834
:100C4000801CC05D012204998A401040002804D015
:100C50003046089A0699FFF7AAFD761C0098301ACC
:100C6000A04204D1009E0698401C069006E004981D
:100C7000401CC0B2049004980828BADB00BF781C5E
:100C8000C7B201988742B1D300BF6D1C029885425C
:100C900090D309B0F0BDFFB585B006460F9C00208B
:100CA000039000962046E217520F1218D2102146E8
:100CB000E3175B0F5B18DB10DB00E31A01D00123A5
:100CC00000E00023D2186243019205200290002523
:100CD00075E01A2068432B49095C07980078814227
:100CE0006BD11A206843274940184178079840780B
:100CF000814262D106980019431E3019421E3046C7
:100D00000699FFF73BFC002754E0002004904BE0DD
:100D1000109800281FD11A2068431A494018801CD7
:100D2000C15D0122049882401140002903D0089837
:100D3000FFF70AFC02E00E98FFF706FC0398401C40
:100D4000C0B203902146039800F0ECFE002927D1A1
:100D5000002003902BE01A2068430A494018801CA9
:100D6000C05D012204998A40104000280ED0304610
:100D7000089A069908E00000E06200086E61000829
:100D8000C460000842600008FFF711FD761C00985F
:100D9000301AA04204D1009E0698401C069006E03E
:100DA0000498401CC0B2049004980828B0DB00BF2F
:100DB000781CC7B201988742A7D300BF6D1C029868
:100DC000854286D309B0F0BDFFB583B017460E9EAD
:100DD0000C9D0D9C35E00C2C09D1029600950194D8
:100DE0003A46069B04990398FFF755FF25E0102C1F
:100DF00009D10296009501943A46069B04990398FE
:100E0000FFF7BAFE19E0182C09D10296009501945B
:100E10003A46069B04990398FFF71FFE0DE0202C2D
:100E200009D10296009501943A46069B04990398CD
:100E3000FFF784FD01E007B0F0BDBF1C0398001967
:100E4000039038780028C6D100BFF4E7FFB585B01D
:100E500017460F9D00200290059800902846E90F44
:100E60000918C9050C0E2046E217520F1218D210AD
:100E70002146E3175B0F5B18DB10DB00E31A01D0A0
:100E8000012300E00023D2186A430192384620383B
:100E9000C7B206984019431E05980019421E0699CC
:100EA0000598FFF76BFB002667E00C2D06D10C20A0
:100EB0007843B0494018805D04901AE0102D05D1A8
:100EC0003801AD494018805D049012E0182D06D11C
:100ED00030207843A9494018805D049009E0202D16
:100EE00005D1B801A6494018805D049001E009B021
:100EF000F0BD002003903BE0109800281AD101209B
:100F00000399884004990840002803D00898FFF707
:100F10001BFB02E00E98FFF717FB0298401CC0B2C3
:100F200002902146029800F0FDFD00291CD100200E
:100F3000029020E00120039988400499084000288D
:100F400004D0089A06990598FFF731FC0598401CD3
:100F5000059000990598401AA04205D10098059087
:100F60000698401C069006E00398401CC0B203900F
:100F700003980828C0DB00BF761C0198864294D3F2
:100F800000BFB4E7FFB583B0064614460C9F0D9D25
:100F90000FE00E9800970195029022783046069B4C
:100FA0000499FFF753FF2846E90F091849108E19D5
:100FB000641C20780028ECD107B0F0BD10B50246C3
:100FC000012002E00346534318460B464C1EE1B293
:100FD000002BF7D110BDFFB587B01E46129D002033
:100FE00006902846E90F0918C905090E0591002445
:100FF0003CE0301B401EC1B20A20FFF7DFFF014674
:101000000390099800F078FD0A21049000F074FD27
:101010000F460698002815D1701EA04212DD002F41
:101020000ED111980195029100900598604307999F
:10103000401804902022109B0899FFF707FF13E047
:1010400001200690002111980195029100903846E8
:101050003030C2B205986043079940180490109B45
:101060000899FFF7F3FE00BF601CC4B2B442C0DBB6
:101070000BB0F0BDFFB587B007461C46129E304648
:10108000F10F0918C905090E05913E49099800F0AC
:101090005DFD039000F04AFE0490002537E0601BE0
:1010A000401EC1B20A20FFF789FF01460290049852
:1010B00000F022FD0A21039000F01EFD0691A01E03
:1010C000A84212D100211198019602910090A01E11
:1010D00005994843C01903902E22109B0899FFF7E9
:1010E000B5FE681CC5B2601CC4B2002111980196FF
:1010F0000291009006983030C2B205986843C0193A
:101100000390109B0899FFF7A1FE681CC5B2A54289
:10111000C5DB0BB0F0BDFFB583B0074614461D46D6
:10112000002604984019431E3819421E3846049977
:10113000FFF724FA0020029017E0002001900EE053
:1011400072000C99885CFFF7F9F97100491C0C9A40
:10115000505CFFF7F3F9761C0198401C0190019850
:10116000A842EDD30298401C02900298A042E4D31A
:1011700007B0F0BD4E2C0008C2300008B23600089F
:10118000824800080000C84210B50420C04300F0A7
:101190009CFC2D492D48006800F0AEFC40B22C4963
:1011A0000870002008567D21C900484300B2294933
:1011B000088010BD0146264A0023D3560A465A43EA
:1011C000254B5A6100229A611A46126901231A437B
:1011D000214B1A6100BF204A1069C207D20F002AB2
:1011E00004D0012212040240002AF4D01A4A1269E3
:1011F00052085200184B1A6100229A61704701464A
:10120000144A0023D35E0A465A43134B5A61002204
:101210009A611A46126901231A430F4B1A6100BFE3
:101220000D4A1069C207D20F002A04D0012212040D
:101230000240002AF4D0084A126952085200064BB4
:101240001A6100229A61704700127A0000000020A3
:10125000140000201600002000E000E010B5044655
:101260000920C006844209D10121480400F095FB01
:1012700000210120400400F090FB30E06E488442E1
:1012800008D10121000200F088FB0021200200F0BB
:1012900084FB24E06948844208D10121000200F067
:1012A0007CFB0021200200F078FB18E064488442B7
:1012B00009D10121080500F070FB00210120000583
:1012C00000F06BFB0BE05F48844208D101218805E8
:1012D00000F063FB00210120800500F05EFB10BDE3
:1012E000F0B50A4600210023002400BF3DE001259F
:1012F0008D402B4615681D402C469C4234D11579F3
:10130000012D02D01579022D16D185684F000326D4
:10131000BE40B543856055794E00B540866835437B
:101320008560858801268E40B543858085889679BD
:101330008E40B6B23543858005684F000326BE4017
:10134000B543056015794E00B54006683543056024
:10135000C5684F000326BE40B543C560D5794E0031
:10136000B540C6683543C560491C1029BFD3F0BDE0
:101370003549016000210171022141710021817113
:10138000C171704708B5012212040092009A0A4305
:101390000092009AC261C161009AC261C269009262
:1013A000C269009208BD02460020138A0B40002B40
:1013B00001D0012000E0002070470146088A7047F4
:1013C00002460020938A0B40002B01D0012000E050
:1013D000002070470146888A704781617047018507
:1013E0007047002A01D0816100E001857047818249
:1013F0007047F0B5002300244D07EE0E1546B540AA
:101400002B46CD10AE0005462035AD594E07F70EE0
:101410000F26BE40B543CE10B60007462037BD515B
:10142000CD10AE003D46AD591D432C46CD10AD004C
:101430003E467451F0BD000000040048000800481A
:10144000000C004800140048FFFF0000FD48006841
:1014500001210843FB49086008464068FA490840F2
:10146000F849486008460068F8490840F5490860AE
:1014700008460068012189048843F249086008464B
:1014800040683F2109048843EE4948600846C06A25
:1014900000090001C8620846006BFF2154318843EF
:1014A000E84908630846406B400840004863002054
:1014B000886070470021E34A917011468870704738
:1014C00010B502460021002300205111002902D14D
:1014D000DC4C23680BE0012902D1DA4C236A06E0D8
:1014E000022902D1D74C636A01E0D64C636BD10666
:1014F000C90E01248C401C40002C01D0012000E0CA
:10150000002010BD38B5002000900024002500BF49
:101510001120FFF7D5FF05460098401C00900521DB
:1015200009020098884201D0002DF1D01120FFF768
:10153000C7FF002801D0012400E00024204638BD68
:1015400001460020BF4A1068F82302469A4310461D
:10155000CA001043BB4A10607047002806D0B94942
:10156000096801221143B74A116005E0B5490968CD
:1015700049084900B34A1160704701460020B14A4A
:10158000506BF82302469A431046CA001043AD4AF6
:1015900050637047002806D0AA49496B01221143C5
:1015A000A84A516305E0A749496B49084900A54A83
:1015B00051637047002806D0A249496B0422914329
:1015C000A04A516305E09F49496B042211439D4A9B
:1015D000516370479B49096A49084900994A116259
:1015E0001146096A04229143964A11621146096A1A
:1015F0000143116270479349096A18229143914A45
:1016000011621146096A014311627047002806D031
:101610008C49496A012211438A4A516205E089498D
:10162000496A49084900874A51627047854A5268A9
:101630003D231B049A43834B5A601A465268034663
:101640000B431A437F4B5A607047002807D07D49EF
:1016500009680122120611437A4A116006E07949AD
:101660000968012212069143764A116070470146CB
:101670000020744AD06A0009000102460A4310465D
:10168000704AD0627047002807D06E49096801226D
:10169000D20411436B4A116006E06A4909680122CD
:1016A000D2049143674A116070476649C871704718
:1016B00001460020634A50688008800002460A43C1
:1016C0001046604A506070475E4840680C210840F0
:1016D0007047014600205B4A5068F02302469A4357
:1016E000104602460A431046564A5060704701466B
:1016F0000020544A506807231B0202469A431046B2
:1017000002460A4310464F4A506070474D494968A7
:101710000122920391434B4A51601146496882B2BB
:101720001143484A51601146096B92159143454A4D
:1017300011631146096B020C1143424A1163704751
:101740004049096B402291433E4A11631146096B9F
:101750000143116370473B49096B10229143394A99
:1017600011631146096B0143116370473549096BD9
:1017700089088900334A11631146096B01431163DB
:101780007047FEB504460025002600200190009019
:1017900000272C4840680C2108400546002D04D045
:1017A000042D05D0082D28D105E02948206027E028
:1017B0002748206024E0234840680F21890408401E
:1017C0000646204840680121090408400190B00CF9
:1017D000861C0198002803D11E48704320600BE04E
:1017E0001848C06A0007000F401C00901848009974
:1017F00000F082F97043206002E01548206000BFCD
:1018000000BF10484068F021084005462D091248E5
:10181000475D2068F84060600A4840680721090277
:10182000084005462D0A0C48475D6068F840A060F6
:101830000448006BFF2101310840884210D007485E
:10184000E0601BE0001002400CB8FFF8FFFFF6FE5E
:1018500000127A0000093D0018000020809FD5008A
:1018600075484068012189030840884203D0A06878
:101870004008E06002E0A0688008E0606E48006B0D
:1018800040210840402802D06C48206102E001203D
:10189000C00320616848006B10210840102802D066
:1018A0006748606101E0206860616348006B800701
:1018B000800F002802D1A068A06119E05E48006B8B
:1018C0008007800F012802D12068A06110E05A48EB
:1018D000006B8007800F022802D18003A06107E01F
:1018E0005548006B8007800F032801D15448A06140
:1018F000FEBD5149096A01434F4A116270470028F1
:1019000007D04D49096A0122D20311434A4A1162A4
:1019100006E04949096A0122D2039143464A11620D
:101920007047002807D04449096A01221204114374
:10193000414A116206E04049096A012212049143BA
:101940003D4A11627047002905D03B4A5269024363
:10195000394B5A6104E0384A52698243364B5A6126
:101960007047002905D0344A92690243324B9A618C
:1019700004E0314A926982432F4B9A6170470029F3
:1019800005D02D4AD26902432B4BDA6104E02A4A82
:10199000D2698243284BDA617047002905D0264A74
:1019A000926A0243244B9A6204E0234A926A824379
:1019B000214B9A627047002905D01F4AD268024322
:1019C0001D4BDA6004E01C4AD26882431A4BDA608D
:1019D0007047002905D0184A12690243164B1A6154
:1019E00004E0154A12698243134B1A6170470029BB
:1019F00005D0114A527A02430F4B5A7204E00E4A44
:101A0000527A82430C4B5A7270470B48406A01214C
:101A10000906084308494862704701460020064A03
:101A200092680A40002A01D0012000E0002070479F
:101A300001498872704700000010024012800000C7
:101A400000127A0000218278002A27D0274A032337
:101A50001B02D21803789B109B00D1580278920782
:101A6000D30EFF229A400B469343194642789207C1
:101A7000120E03789B07DB0E9A4011431B4A032387
:101A80001B02D21803789B109B00D1500278D3061A
:101A9000DB0E01229A40154B1A6007E00278D3064C
:101AA000DB0E01229A40114B80331A6070470029E7
:101AB00005D00F4A126902430D4B1A6104E00C4A2B
:101AC000126982430A4B1A617047042806D10949FA
:101AD000096904221143074A116105E005490969B2
:101AE00004229143034A11617047000000E100E0C5
:101AF00000ED00E000E000E030B50B4601460020BC
:101B00002022012409E00D46D5409D4205D31D4603
:101B10009540491B2546954040191546521E002DFB
:101B2000F1DC30BD70B500242546002801DA01241F
:101B30004042002901DA01254942FFF7DDFFAC42AE
:101B400000D04042002C00D0494270BD024670B522
:101B50004A40D30FDB0740002DD04A002AD0010EA7
:101B6000140E000212020919400A520A8418E501F3
:101B700004465443000A120A2E045043A419421981
:101B8000200CC543AA18120C0125AD03521C521992
:101B900012047F39240400D0521C104301D44000A9
:101BA000491EC2B20C06C0092018401C4008802AF9
:101BB00002D003E0002070BD40084000002900DA98
:101BC0000020184370BD0000F0B507460846584095
:101BD00087B0C00F049048000E46590040084908DD
:101BE000BC1A884105D2384631461E4617460B4678
:101BF00002465800400810434CD0300D0390400579
:101C00005900400D490D0590401A0290402872DAA3
:101C100018030121000B0905084301900498009264
:101C2000002805D00199524200208841009201907D
:101C3000029840210A1A0199009800F0BBF8054665
:101C40000C466B4607CB00F0C5F8C0197141039AEA
:101C50000E0D0023D71756401A467A40164344D03B
:101C6000049A002A2DD0029A012A039A15DC120543
:101C7000C01A914101263605001C7141D20F059E04
:101C8000D2070093019202962A46234600F003F9F8
:101C900007B0F0BD38463146FAE71605224A0F462E
:101CA000B218C01AB74101210905001C4F410018A4
:101CB0007F41114618187941E20F10436D196441B4
:101CC00013E0E2076D0815436408C2071443039A42
:101CD00001261205C01A91413605001C7141CE073C
:101CE000400830434908C01851412A46234600F0B5
:101CF000C5F8CDE7FFE7049801224000C117121A8A
:101D000000238B4104983146C417381AA141EEE7ED
:101D100030B40124E407634030BC55E730B40124FB
:101D2000E407614030BC4FE70000E0FF41004002A3
:101D30000122400AD205090E80187F2901DA00200D
:101D40007047962903DC9622511AC840704796398D
:101D500088407047C20FD207400040080BD0C10D29
:101D60000723DB01C91840020905400A1143C208D4
:101D7000400711437047002001467047CB0FDB0737
:101D8000490010B5490802460A4307D00A0D072446
:101D90000903E401090B121B002A01DC002010BD1D
:101DA000C900440F0C43C100E018D205801800F0B0
:101DB00024F810BD10B5202A04DB0146203A9140DA
:101DC000002010BD914020239C1A0346E340194394
:101DD000904010BD10B5202A06DBCB170846203AEC
:101DE0001041C1170B4306E00B461341D04020249D
:101DF000A21A91400843194610BD002904DA401C7C
:101E0000490001D140084000704770B40024050C1F
:101E100005D11024000402D1002921D01124050E7F
:101E200001D100020834050F01D10001241D850FE6
:101E300001D18000A41C002801DB4000641C0029A3
:101E400008D020252E1B0D46F540A14000D00121D1
:101E50002943084301061B1B000ADB1D02D5002095
:101E600070BC7047DB05181880180029F8DA401C90
:101E70004900F5D170BC40084000704710B5002BF8
:101E800008DA0024401C614192185B411A4301D1D9
:101E90004008400010BDF0B51FB482B005460C00EC
:101EA00003D0084600F06DF802E000F06AF8203038
:101EB0000246009021462846FFF77CFF049B059AC6
:101EC00004460F4618431143084314D018461043E4
:101ED0001BD0009840210A1A1846059900F040F8D6
:101EE00005460E46009A05990498FFF763FF0843DC
:101EF00005D0012004E02046394607B0F0BD00209F
:101F0000C11705430E432C43374300990E986305D0
:101F1000401A7905E40A00220C43FD0A0A3002D572
:101F200000200146E9E70105101969410C9C0D9D4F
:101F300000196941FFF7A2FFDFE70000064C012509
:101F4000064E05E0E36807CC2B430C3C9847103461
:101F5000B442F7D3FEF7B8F86C6500088C6500084A
:101F600010B5202A04DB0846203AD040002110BDDD
:101F70000B46D340D0402024A21A91400843194672
:101F800010BD2021020C01D010211046020A01D000
:101F900010460839020901D01046091F820801D0F5
:101FA0001046891E420801D0881E7047081A7047E3
:101FB00002E008C8121F08C1002AFAD17047704712
:101FC000002001E001C1121F002AFBD17047FFFF72
:101FD000FFFFFFFFFFFFFFFFFFFFFFFFFFFFFFFF11
:101FE000FFFFFFFFFFFFFFFFFFFFFFFFF7BEFFFF4A
:101FF000FFDEC6388C926B8E6B6E7C10AD96E73C24
:10200000FFFFFFFFFFFFFFFFFFFFFFFFFFFFFFFFE0
:10201000FFFFFFFFFFFFFFFFFFFFFFFFFFFFFFFFD0
:10202000FFFFFFFFFFFFFFFFFFFFFFFFFFFFFFFFC0
:10203000FFFFFFFFFFFFFFFFFFFFFFFFEF5D9D15AE
:10204000634F426C320A298819461925214531E827
:102050006B8EC638FFFFFFFFFFFFFFFFFFFFFFFF95
:10206000FFFFFFFFFFFFFFFFFFFFFFFFFFFFFFFF80
:10207000FFFFFFFFFFFFFFFFFFFFFFFFFFFFFFFF70
:10208000FFFFFFFFFFFFFFFFFFFFA53653104B10C1
:1020900053514B0F3A6C31E92167192510E408A31D
:1020A0000062088352CBD69AFFFFFFFFFFFFFFFFBE
:1020B000FFFFFFFFFFFFFFFFFFFFFFFFFFFFFFFF30
:1020C000FFFFFFFFFFFFFFFFFFFFFFFFFFFFFFFF20
:1020D000FFFFFFFFFFFFE73C637063B37CB863F56E
:1020E0004311324D29EA21881926190519051104D1
:1020F000110410E4008308A38C72FFFFFFFFFFFFB1
:10210000FFFFFFFFFFFFFFFFFFFFFFFFFFFFFFFFDF
:10211000FFFFFFFFFFFFFFFFFFFFFFFFFFFFFFFFCF
:10212000FFFFFFFFDEDB3A4B42F06C354B5432B120
:102130002A2E21EB21A91967190511041104110494
:1021400011041104190510E4004273AFFFFFFFFFF3
:10215000FFFFFFFFFFFFFFFFFFFFFFFFFFFFFFFF8F
:10216000FFFFFFFFFFFFFFFFFFFFFFFFFFFFFFFF7F
:10217000FFFFEF5D3209324C4B10328F2A4F2A2E6F
:1021800019CC19892189194719051104110410C4A2
:1021900010C411041104110410E400428431FFFF43
:1021A000FFFFFFFFFFFFFFFFFFFFFFFFFFFFFFFF3F
:1021B000FFFFFFFFFFFFFFFFFFFFFFFFFFFFFFFF2F
:1021C000FFFF52EC1947324C2A0B21EC21EC220C78
:1021D0005B914AEE11061926190410E410E429A7B0
:1021E000216608A319051104110410E40082BDF74B
:1021F000FFFFFFFFFFFFFFFFFFFFFFFFFFFFFFFFEF
:10220000FFFFFFFFFFFFFFFFFFFFFFFFFFFFFFFFDE
:10221000A535088321882188218921AA218A426B3A
:102220008C71FFFF8C720883110408C44229DEFB05
:10223000EF5D5AEC0883110411041104088331E89E
:10224000FFDFFFFFFFFFFFFFFFFFFFFFFFFFFFFFBE
:10225000FFFFFFFFFFFFFFFFFFFFFFFFFFFFF7BED7
:1022600031C710C4192519261947194729A8528AB8
:102270004A28AD55FFFF31E808A319056B4D6B4D9A
:10228000FFFFEF7D214510C4110411041104006209
:10229000AD76FFFFFFFFFFFFFFFFFFFFFFFFFFFF29
:1022A000FFFFFFFFFFFFFFFFFFFFFFFFFFFFB596F1
:1022B0000062110419041105190508C44A8BB5B64A
:1022C000EF5DBDF7FFFF6B8E006242295AAA4208FC
:1022D000FFFFFFFF52CC088311041104110408A36F
:1022E00052ADFFFFFFFFFFFFFFFFFFFFFFFFFFFFFD
:1022F000FFFFFFFFE71CFFFFFFFFFFFFFFFF634E36
:10230000006211041104110410E40062638EFFFFE7
:10231000FFFFFFFFFFFF73CF00019CF3632CB59617
:10232000FFFFFFFF5B2D008311041104110410E473
:102330002167EF3DFFFFFFFFFFFFFFFFFFFFBDF83E
:10234000B5B7EF9E52CB94B3FFFFFFFFFFDF31E83D
:1023500008A3110411041104110408A34249F7FF52
:10236000F7FFFFFFFFFF4A6A00018472FFFFFFFFD4
:10237000F7FFEFDF3A0908A3110411041104110457
:102380001105BE18FFFFFFFFFFFFFFFFFFFF7BF000
:10239000006231E831C70041A535FFFFEF5D2146FE
:1023A00010C4110411041104110410E408A39D7653
:1023B000F7FFFFFFADB708A308A331C7E79EF7FFFC
:1023C000F7FFA57608A310E4110411041104110508
:1023D0001105A535FFFFFFFFFFFFFFFFFFFFDEDB5E
:1023E00029A7008310C410C410C4E71CEF9E110578
:1023F00010E41104110411041104190408C410E5B7
:102400006BD16BD108C5006408A50043322B9D77C2
:1024100084B3192510C411041104110411041925E1
:1024200009269D35FFFFFFFFFFFFFFFFFFFFFFFFB7
:1024300073AF00621904190500825B0D9B8E106258
:10244000110511041104190410E40085110539C4A3
:102450005A817B409C22AC43A4039B8372824982B5
:1024600018C200A400C510E4190411041905194785
:1024700011675AECFFBEFFFFFFFFFFFFFFFFFFDF0B
:10248000DEDB10C410E41104110518A4C001888318
:1024900000E41905190408C521448343D523FE42ED
:1024A000FEE4FF27FF07FEA4FE64FE03FDA3FCE29B
:1024B000EC42B383622410E508C41904192619A854
:1024C00021879000BCD3FFFFFFFFFFFFFFFFFFDF6F
:1024D000FFFF7C100042190511052883D001F84444
:1024E00048A300E408C55A44ED02FDE2FE02FE6680
:1024F000FF74FFB8FF73F6E7F6A6F645F5A4FCC334
:10250000FC62FCC2FCC2CBE349C4110619880187F6
:1025100090A4F8019AECFFFFFFFFFFFFFFFFFFFF12
:10252000FFFFF7BE31E8008309054082C001F823B0
:10253000F08548A300A45A44FD02CC23DCC2FE046B
:10254000FE28F648F646F624F5E4FD64FCE3FC625A
:10255000FCC2E402DC02FCE27AA40148016778C410
:10256000F824F802B084E77DFFFFFFFFFFFFFFFFC5
:10257000FFFFFFFFDEDB192500A338C4E002D822ED
:10258000F844F8A678A400632143728339839B82C0
:10259000F521FD61FD22FCE2FCA2FC42FC42FC4272
:1025A000AB22418392C352040126192598A4F84412
:1025B000F823F802D0A4EF9EFFFFFFFFFFFFFFFF0D
:1025C000FFFFFFFFFFFFD69A298700A5B843F82237
:1025D000E023F865F8E8C9074883004200A30084B7
:1025E00029637AA2B362CBA2D362BB028A82398307
:1025F00000A400E500E508E560C4D864F844F824C8
:10260000F823F8028883C6DBFFFFFFFFFFFFFFFF11
:10261000FFFFFFFFFFFFFFFFE73D5B503108E823AF
:10262000F843F044F865F909F9ABD189890648A364
:1026300018420002004200610082006200620083D2
:1026400020A350C488A5D885F865F844F844F82339
:10265000F823D003108229C7EF5DFFFFFFFFFFFFC4
:10266000FFFFFFFFFFFFFFFFFFFFFFFF326C38A5FB
:10267000D802F823F865F866F8A7F94AFA0CFA4D7B
:10268000EA4CD20BB9A9B168A947B127B907D1075C
:10269000E8E7F8C7F8A7F865F865F844F823F80301
:1026A000D00228A3090508C45AECFFFFFFFFFFFF73
:1026B000FFFFFFFFFFFFFFFFFFFFDEFB190500C469
:1026C00041A7C0E6F803F886F8A7F887F886F8C7A8
:1026D000F929F98AF9ABF9ABF98BF96AF929F90803
:1026E000F8C7F8A6F886F865F864F823F002B10692
:1026F000292500E410E4192519259D14FFFFFFFF8B
:10270000FFFFFFFFFFFFFFFFFFFFAD9600620882A4
:102710009535CEBAA28BD044F825F887F8A7F8C72C
:10272000F8A7F887F886F886F886F887F8A7F8A754
:10273000F8A6F885F865F864F024B864930DB6BB84
:1027400063CF0883110410E421663A49EF5DFFFF6F
:10275000FFFFFFFFFFFFFFFFFFFF94D3004210E4E6
:10276000CEBBFFFFE7BEB576AACCC107E045F84572
:10277000F846F866F886F886F886F886F865F8452B
:10278000F865E865D044A84388019082D73CEFFF04
:1027900095550883110411041905194694B3FFFFD8
:1027A000FFFFFFFFFFFFFFFFFFFF94B30041218604
:1027B000DF5DFFFFFFFFFFFFE7DFC67AB4D3B34E55
:1027C000C22AD168E0E6E8A6E8A5E8A5D8E6C98867
:1027D000A906A822A802A000C800D800E5F7E7FFD4
:1027E000ADF810C410E4110410E411054A8BFFFF8A
:1027F000FFFFFFFFFFFFFFFFFFFFA555004129A7D8
:10280000DF5DF7FFFFFFFFFFFFFFFFFFFFFFEFFFB2
:10281000DF7DCEDBCE59CDF8CDD7C5F7CE79BEFB67
:10282000A2ABF003F845D042E843F000D472DFFFDA
:10283000AE3910E410E4110410E411052987FFFFFC
:10284000FFFFFFFFFFFFFFFFFFFFCE590883214679
:10285000D71CF7FFFFFFFFFFFFFFFFFFFFFFFFFF9B
:10286000FFFFFFFFFFFFFFFFFFFFFFFFFFFFEFFF88
:10287000BA8BF804F845E062F044F800DB8EDFFF25
:10288000A5F810C410E410E4110410E41925FFFFAA
:10289000FFFFFFFFFFFFFFFFFFFFF7BE2987088352
:1028A000B639F7FFF7DFFFFFFFFFFFFFFFFFFFFF77
:1028B000FFFFFFFFFFFFFFFFFFFFFFFFFFFFE7BE81
:1028C000BA4AF803F845F864F844F800E36ED7FF15
:1028D0008CF40883110410E410E410E41905FFFFE0
:1028E000FFFFFFFFFFFFFFFFFFFFFFFF73EF000092
:1028F0008472EFFFEFBEFFDFFFFFFFFFFFFFFFFF71
:10290000FFFFFFFFFFFFFFFFFFFFFFFFFFFFE7DF0F
:10291000BA8BF803F845F845F823F800D4D3D7FF6D
:102920005B4E00213A29A555088310C41925FFFFE5
:10293000FFFFFFFFFFFFFFFFFFFFFFFFDEFB08A31F
:1029400031E8DF9EE79EEFBFFFFFFFFFFFFFFFFFC6
:10295000FFFFFFFFFFFFFFFFFFFFFFFFFFFFF7FF8F
:10296000BC51E002F803F003E043C2ECCF7EBEFCB2
:102970002146002194D3FFFF845100002987FFFFE7
:10298000FFFFFFFFFFFFFFFFFFFFFFFFFFFF845180
:1029900000008CF4EFFFE79EEFBFFFDFFFFFFFFFBC
:1029A000FFFFFFFFFFFFFFFFFFFFFFFFFFFFFFFF37
:1029B000DF3DBD55BC52BC72B5B7C75DDFFF6BF0E4
:1029C00000003A09F7BFFFFFFFFF9D14A555FFFF69
:1029D000FFFFFFFFFFFFFFFFFFFFFFFFFFFFFFFF07
:1029E0004AAC08A4BEBBE7DFE77EEFBEF7DFFFDF40
:1029F000FFFFFFFFFFFFFFFFFFFFFFFFFFFFFFDF07
:102A0000F7DFEFFFDFDFD7BFD79EDFDFA5D8088373
:102A10001126D6DBFFFFFFFFFFFFFFFFFFFFFFFFDA
:102A2000FFFFFFFFFFFFFFFFFFFFFFFFFFFFEE794D
:102A3000DC8B312121A9CF3DDFBFDF7EE79EEFBEDA
:102A4000EFBFF7DFF7DFF7DFF7DFF7DFEFBFEFBE4F
:102A5000E79EDF7ED75ED75EDFDFB69A1926084293
:102A6000A3EDFFBFFFFFFFFFFFFFFFFFFFFFFFFF24
:102A7000FFFFFFFFFFFFFFFFFFFFFFFFDD74DBC076
:102A8000FE00EE4242022189B67BDFDFD77EDF7E89
:102A9000DF7EE79EE79EE79EE79EE79EDF7EDF7E86
:102AA000D75DD75DDF9EE7FFA5F8110718E3C502E4
:102AB000FD60D3E6EEDBFFFFFFFFFFFFFFFFFFFF41
:102AC000FFFFFFFFFFFFFFFFFFFFF79EBA84FCC180
:102AD000FE42FE82FEA2838121457474C75EDFDF61
:102AE000D77ED75ED75DD75ED75ED75DD75DD75E21
:102AF000DF9EE7FFC73D63F108845242E626FF29C7
:102B0000FE86F3E0C36AFFFFFFFFFFFFFFFFFFFF4B
:102B1000FFFFFFFFFFFFFFFFFFFFDE18D2C1FDA297
:102B2000FE22FE42FE42FE62D4E26A4142497453F2
:102B3000A63BC73ED7BFD7BFD7BFDFBFD7BFC73EB4
:102B4000A61A63F229A74182B422FE62FE83FEAA7E
:102B5000FF0FFD67BA63EF3CFFFFFFFFFFFFFFFFC3
:102B6000FFFFFFFFFFFFFFFFFFFFE69AD280FD217F
:102B7000FDC2F5E2F5C2F582FD82FD62DC619B21BA
:102B80006A846AE9632C63AF7411636E632C5A899B
:102B900052047A81CBC2FCE2FD62FD82FDC2FDC21D
:102BA000FDE4FD24CA62E71CFFFFFFFFFFFFFFFFFC
:102BB000FFFFFFFFFFFFFFFFFFFFFFFFCCB1D28151
:102BC000F3C0FCC1FD02FD02FCE2FCC2FCC2FC81C0
:102BD000FB80C9C081A4AD35CE599C718121DA003A
:102BE000FBA1FC82FCA2FC82FCA2FD02FD22FCE215
:102BF000FC00DA60CC90FFFFFFFFFFFFFFFFFFFF4D
:102C0000FFFFFFFFFFFFFFFFFFFFFFFFFFFFDE599B
:102C1000C40DCB06D2E4DB03DB03DAE3D2C3C2A4E8
:102C2000B309BCD2F79EFFFFFFFFFFFFE6FBB40E28
:102C3000BAA6D283E2E3EB02EB22E322DB03D2E487
:102C4000C36AD5B6FFFFFFFFFFFFFFFFFFFF0000D6
:102C50000000000000000000000000000404040464
:102C600004000004000014140A000000000000002A
:102C7000000000000A0A1F0A0A1F0A0A00000004D6
:102C80000E1505060C14150E0400000012150D1586
:102C90002E2C2A1200000000040A0A3615152916E7
:102CA0000000020201000000000000000000100807
:102CB00008040404040408081000020404080808B6
:102CC00008080404020000000004150E0E1504009C
:102CD000000000000008083E080800000000000096
:102CE0000000000000000202010000000000003FA0
:102CF00000000000000000000000000000000002D2
:102D00000000002010100808040402020100000066
:102D10000E1111111111110E00000000040604041F
:102D20000404040E000000000E1111080402011F2B
:102D3000000000000E11100C1010110E0000000019
:102D4000080C0C0A091F081C000000001F01010FDD
:102D50001110110E000000000C12010D1311110EC4
:102D6000000000001E100808040404040000000015
:102D70000E11110E1111110E000000000E1111198B
:102D80001610090600000000000004000000000406
:102D90000000000000000004000000040400000027
:102DA00010080402020408100000000000003F00A8
:102DB0003F00000000000000020408101008040298
:102DC000000000000E1111080404000400000000BF
:102DD0001C22292D2D1D221C0000000004040C0AB9
:102DE0000A1E1233000000000F12120E1212120FF0
:102DF000000000001E1101010101110E0000000081
:102E00000F1212121212120F000000001F120A0EEF
:102E10000A02121F000000001F120A0E0A02020717
:102E2000000000001C1201013911120C000000000A
:102E30003312121E12121233000000001F04040489
:102E40000404041F000000003E08080808080808E1
:102E50000907000037120A060A12123700000000A4
:102E6000070202020202223F000000003B1B1B1B64
:102E700015151535000000003B1216161A1A121708
:102E8000000000000E1111111111110E00000000C0
:102E90000F12120E02020207000000000E111111A3
:102EA0001117190E180000000F12120E0A12123715
:102EB000000000001E1101060810110F00000000A4
:102EC0001F1504040404040E000000003312121243
:102ED0001212120C000000003312120A0A0C040431
:102EE00000000000151515150E0A0A0A0000000062
:102EF0001B0A0A04040A0A1B000000001B0A0A0A33
:102F00000404040E000000001F0908040402121F3C
:102F100000001C0404040404040404041C00000253
:102F2000020404040808081010000E080808080825
:102F3000080808080E00040A000000000000000055
:102F4000000000000000000000000000003F02043C
:102F50000000000000000000000000000000000C65
:102F6000121C123C000000030202020E1212120E8A
:102F7000000000000000001C1202120C00000018EB
:102F80001010101C1212123C000000000000000C77
:102F9000121E021C000000182404041E0404041E57
:102FA000000000000000003C120C021C221C000368
:102FB0000202020E12121237000000040400000682
:102FC0000404040E000000080800000C08080808AB
:102FD000080700030202021A0A060A13000000078B
:102FE000040404040404041F000000000000000F97
:102FF00015151515000000000000000F1212123701
:10300000000000000000000C1212120C0000000072
:103010000000000F1212120E020700000000001C38
:103020001212121C103800000000001B06020207DA
:10303000000000000000001E020C101E0000000036
:103040000004041E0404041C000000000000001B17
:103050001212123C000000000000001B0A0A0404C7
:103060000000000000000015150E0A0A0000000014
:103070000000001B0A040A1B0000000000000033CF
:1030800012120C08040300000000001E0804041EB5
:10309000000018080808080C0808080818000808A4
:1030A00008080808080808080808060404040408B2
:1030B00004040404060016090000000000000000DB
:1030C0000000000000000000000000000000000000
:1030D0000000000000080808080808080000181888
:1030E000000000486C2412000000000000000000F6
:1030F00000000000002424247F1212127F121212FA
:1031000000000000081C2A2A0A0C1828282A2A1C59
:10311000080800000022251515152A585454542279
:1031200000000000000C1212120A76252911916E7F
:10313000000000060604030000000000000000007C
:10314000000000402010100808080808081010208F
:1031500040000002040808101010101010080804A5
:1031600002000000000008086B1C1C6B080800002F
:10317000000000000000080808087F080808080090
:103180000000000000000000000000000000060633
:1031900004030000000000000000FE00000000002A
:1031A0000000000000000000000000000000060613
:1031B0000000000080404020201010080804040295
:1031C00002000000001824424242424242422418B7
:1031D0000000000000080E08080808080808083E5B
:1031E00000000000003C4242422020100804427EC1
:1031F00000000000003C4242201820404042221CB7
:103200000000000000203028242422227E20207884
:1032100000000000007E0202021A26404042221CEA
:103220000000000000382402021A264242422418FC
:1032300000000000007E222210100808080808087C
:1032400000000000003C4242422418244242423C1A
:103250000000000000182442424264584040241CF0
:1032600000000000000000001818000000001818FE
:10327000000000000000000000080000000000083E
:103280000804000000402010080402040810204038
:1032900000000000000000007F0000007F00000030
:1032A0000000000000020408102040201008040262
:1032B00000000000003C4242464020101000181858
:1032C00000000000001C225A555555552D42221C65
:1032D00000000000000808181414243C224242E7B1
:1032E00000000000001F2222221E22424242221F12
:1032F00000000000007C4242010101010142221C49
:1033000000000000001F2242424242424242221F6D
:1033100000000000003F4212121E12120242423F01
:1033200000000000003F4212121E121202020207A9
:1033300000000000003C2222010101712122221C18
:103340000000000000E7424242427E42424242E721
:1033500000000000003E0808080808080808083EA9
:1033600000000000007C1010101010101010101041
:10337000110F0000007722120A0E0A121222227781
:103380000000000000070202020202020202427F65
:10339000000000000077363636362A2A2A2A2A6BA1
:1033A0000000000000E346464A4A52525262624719
:1033B00000000000001C2241414141414141221CCA
:1033C00000000000003F424242423E020202020769
:1033D00000000000001C2241414141414D53321C7C
:1033E00060000000003F4242423E1212222242C7C9
:1033F00000000000007C4242020418204042423E8D
:1034000000000000007F4908080808080808081C98
:103410000000000000E74242424242424242423C37
:103420000000000000E74242222424141418080877
:1034300000000000006B49494949555536222222B7
:103440000000000000E7422424181818242442E752
:103450000000000000772222141408080808081C45
:1034600000000000007E2120101008040442423FAA
:103470000000007808080808080808080808080874
:103480007800000002020404080808101020202020
:103490004040001E101010101010101010101010CE
:1034A0001E00003844000000000000000000000082
:1034B000000000000000000000000000000000000C
:1034C00000FF0006080000000000000000000000EF
:1034D0000000000000000000003C4278444242FC32
:1034E0000000000000030202021A26424242261A8D
:1034F00000000000000000000038440202024438CE
:10350000000000000060404040784442424264D8DD
:103510000000000000000000003C427E0202423C2D
:103520000000000000F08808087E08080808083E2F
:103530000000000000000000007C22221C023C422F
:10354000423C000000030202023A4642424242E785
:1035500000000000000C0C00000E08080808083EDF
:103560000000000000303000003820202020202003
:10357000221E0000000302020272120A16122277B3
:1035800000000000000E0808080808080808083EA7
:103590000000000000000000007F9292929292B71B
:1035A0000000000000000000003B4642424242E7AB
:1035B0000000000000000000003C42424242423C49
:1035C0000000000000000000001B26424242221EB4
:1035D00002070000000000000078444242424478A4
:1035E00040E000000000000000774C040404041FC9
:1035F0000000000000000000007C42023C40423E0F
:103600000000000000000008083E08080808083014
:10361000000000000000000000634242424262DC01
:10362000000000000000000000E742242414080805
:10363000000000000000000000EB4949555522221F
:103640000000000000000000007624181818246E06
:10365000000000000000000000E7422424141808C5
:103660000807000000000000007E22100808447EC9
:10367000000000C02020202020102020202020201A
:10368000C00010101010101010101010101010109A
:10369000101000060808080808100808080808089C
:1036A00006000C32C2000000000000000000000014
:1036B000000000000000000000000000000000000A
:1036C00000000000000000000000000000000000FA
:1036D00000000000000000000000000000000000EA
:1036E00000000000000000000000600060006000BA
:1036F00060006000600060004000200020002000AA
:103700000000000000006000600060000000000099
:103710000000000000006006600630039801880089
:103720004400000000000000000000000000000055
:103730000000000000000000000000000000000089
:103740000000000000000000000010021002100243
:103750001002FE07FE07080208010801080108011F
:10376000FE07FE070401040104010401000000003B
:10377000000000000000000040004000F00158037D
:103780004C03CC034C0058007000E000C001C001A5
:1037900040034C035C034C034801F0004000400030
:1037A000000000000000000000000E010A0191006E
:1037B00091009100510051003A00AE03A002500464
:1037C00050044804480448048402840300000000B4
:1037D0000000000000000000000038006C006C00D9
:1037E0006C006C006C002C0098071C011A0133015E
:1037F00033016301E300C308C6093C070000000071
:103800000000000000000C001C0010001000080068
:1038100004000000000000000000000000000000A4
:103820000000000000000000000000000000000098
:103830000000000000000004000200018000800081
:103840004000400020002000200020002000200038
:1038500020004000400080008000000100020004C1
:10386000000000000000020004000800100010002A
:103870002000200040004000400040004000400088
:10388000400020002000100010000800040002008A
:1038900000000000000000000000000000004000E8
:1038A000C0004000460C4E0FD001F0015E0F460CE8
:1038B0004000400040000000000000000000000048
:1038C00000000000000000000000000000000000F8
:1038D00040004000400040004000FE0F400040001B
:1038E0004000400040000000000000000000000018
:1038F00000000000000000000000000000000000C8
:1039000000000000000000000000000000000000B7
:103910000000000000000C001C0010001000080057
:103920000400000000000000000000000000000093
:1039300000000000000000000000FE070000000082
:103940000000000000000000000000000000000077
:103950000000000000000000000000000000000067
:103960000000000000000000000000000000000057
:103970000000000000001C001C001C0000000000F3
:103980000000000000000004000600020003000127
:103990000001800080004000400060002000200006
:1039A00010001000080008000C00040006000200CF
:1039B000000000000000000000000000F00098017E
:1039C0000C030C0306060606060606060606060691
:1039D000060606060C030C039801F0000000000028
:1039E00000000000000000000000000040007C001B
:1039F00060006000600060006000600060006000C7
:103A000060006000600060006000FC0300000000D7
:103A1000000000000000000000000000F800840129
:103A2000020306030603000300018001C0006000DA
:103A300020001000080204020602FE03000000003D
:103A40000000000000000000000000007800C60038
:103A50008601860180018001C000700080010001A4
:103A600000030003060306038601F80000000000BF
:103A70000000000000000000000000008001800144
:103A8000C001A001A0019001880188018401820188
:103A9000FE0F8001800180018001E007000000002E
:103AA000000000000000000000000000FC03040013
:103AB0000400040004000400F4008C01040300036B
:103AC00000030603060382018401F80000000000E1
:103AD000000000000000000000000000E0011803EA
:103AE0000C030C0004000600E60116030E06060691
:103AF0000606060604060C021803F000000000008B
:103B0000000000000000000000000000F8070C06A4
:103B10000402040100010001800080004000400018
:103B20004000600060006000600060000000000075
:103B3000000000000000000000000000F8010C037D
:103B40000606060606060C021C03F000C8010C035C
:103B500006060606060606060C03F0010000000035
:103B6000000000000000000000000000F0000C0158
:103B70000C03060206060606060606078C067806ED
:103B80000006000300030C018C0178000000000017
:103B90000000000000000000000000000000000025
:103BA000000000000000E000E000E0000000000075
:103BB000000000000000E000E000E0000000000065
:103BC00000000000000000000000000000000000F5
:103BD0000000000000006000600000000000000025
:103BE00000000000000000006000600040002000B5
:103BF000200000000000000000000004000200019E
:103C000080004000200010000800040008001000A0
:103C100020004000800000010002000400000000BD
:103C20000000000000000000000000000000000094
:103C3000000000000000FE07000000000000FE077A
:103C40000000000000000000000000000000000074
:103C50000000000000000000000004000800100048
:103C6000200040008000000100020004000200016A
:103C70008000400020001000080004000000000048
:103C8000000000000000000000000000E003180633
:103C9000040C040C0C0C0C0C0007800140004000CC
:103CA000400000000000E000E000E0000000000034
:103CB00000000000000000000000E00018030C02FB
:103CC000CC0564056605A605B604B604B604B604BC
:103CD000B602E4010C040C021803F000000000001E
:103CE0000000000000000000000000006000600014
:103CF0005000D00090009000880088010801F80171
:103D0000040304030402020202060F0F0000000075
:103D1000000000000000000000000000FE008C0316
:103D20000C030C030C030C038C01FC000C030C02B1
:103D30000C060C060C060C060C03FE01000000002D
:103D4000000000000000000000000000E003180375
:103D50000C060C040404060006000600060006001B
:103D6000060006040C040C021803F000000000001A
:103D70000000000000000000000000007F008C0137
:103D80000C030C030C060C060C060C060C060C06A9
:103D90000C060C060C030C038C017F0000000000D5
:103DA000000000000000000000000000FF03060308
:103DB00006040604060086008600FE0086008600D3
:103DC00086000600060406040602FF030000000049
:103DD000000000000000000000000000FF030603D8
:103DE00006040604060086008600FE0086008600A3
:103DF000860006000600060006001F000000000006
:103E0000000000000000000000000000F0001801A9
:103E10000C020C0204020600060006000600C60F93
:103E2000060306030C030C031803F0000000000057
:103E30000000000000000000000000000F0F060658
:103E400006060606060606060606FE070606060619
:103E5000060606060606060606060F0F0000000008
:103E6000000000000000000000000000FC036000F3
:103E70006000600060006000600060006000600042
:103E800060006000600060006000FC030000000053
:103E9000000000000000000000000000F807C00063
:103EA000C000C000C000C000C000C000C000C00012
:103EB000C000C000C000C000C000C000C600660056
:103EC0003C0000000000000000000000CF0386015D
:103ED000C60046002600160036002E006E00460082
:103EE000C60086008601060106038F070000000059
:103EF0000000000000000000000000001F0006009D
:103F00000600060006000600060006000600060081
:103F100006000600060406040602FF030000000077
:103F200000000000000000000000000007078603FA
:103F300086038E038E034E034E034A035A035A032D
:103F40003A033203320332031203870700000000F2
:103F50000000000000000000000000008E0F0C02B6
:103F60001C021C0234023402640264024402C402D1
:103F7000840284038403040304031F02000000007E
:103F8000000000000000000000000000F0009801A8
:103F90000C030C02060606060606060606060606BC
:103FA000060606060C020C039801F0000000000053
:103FB000000000000000000000000000FF000603F9
:103FC000060606060606060606068603FE00060028
:103FD000060006000600060006001F0000000000A4
:103FE000000000000000000000000000F000980148
:103FF0000C030C020606060606060606060606065C
:10400000060676064C02CC039801F00080070003F8
:10401000000000000000000000000000FF01060397
:1040200006060606060606060603FE004600C6004D
:10403000860086010603060306060F0E0000000038
:10404000000000000000000000000000F8020C0367
:104050000602060206000E003C00F800E0038003A2
:1040600000070206020606060C03F001000000002D
:10407000000000000000000000000000FE076204D5
:10408000610861086000600060006000600060001E
:1040900060006000600060006000F8010000000047
:1040A0000000000000000000000000001E070C02DD
:1040B0000C020C020C020C020C020C020C020C0290
:1040C0000C020C020C020C021801F00000000000AF
:1040D0000000000000000000000000000F070602C2
:1040E000040104010C010C0188008800980098006C
:1040F0005000500070003000200020000000000040
:10410000000000000000000000000000F70E620444
:1041100042044604460464026402E402E4029C028F
:104120009C01980198018801880088000000000027
:104130000000000000000000000000009E070C01CD
:10414000080118019000B0006000200060006000CD
:10415000D00090008801080104038E0700000000D1
:104160000000000000000000000000000F0F060427
:1041700004020C0208011801B800B00070006000D1
:1041800060006000600060006000F8010000000056
:10419000000000000000000000000000FC070C020E
:1041A0000603020180018000400040002000200042
:1041B0001000180008040C040402FE0300000000B4
:1041C000000000000000E00320002000200020008C
:1041D00020002000200020002000200020002000DF
:1041E0002000200020002000200020002000E0030C
:1041F00000000000000000000000040004000800AF
:1042000008001000100010002000200040004000B6
:10421000C0008000800000010001000200020002D6
:104220000004000000007C0040004000400040000E
:10423000400040004000400040004000400040007E
:1042400040004000400040004000400040007C0032
:104250000000000060009000080100000000000065
:10426000000000000000000000000000000000004E
:10427000000000000000000000000000000000003E
:10428000000000000000000000000000000000002E
:10429000000000000000000000000000000000001E
:1042A000000000000000000000000000000000000E
:1042B000FF0F000000001800600000000000000078
:1042C00000000000000000000000000000000000EE
:1042D00000000000000000000000000000000000DE
:1042E00000000000000000000000000000000000CE
:1042F000000000000000F0010C030C030003E003C9
:104300001C030E03060306038E0B7C0E0000000048
:104310000000000000000000000008000E000C007B
:104320000C000C000C00CC013C031C060C060C0617
:104330000C060C060C060C021C03E4010000000035
:10434000000000000000000000000000000000006D
:10435000000000000000F0008C018C0186010600C6
:104360000600060006020C020C01F000000000002E
:10437000000000000000000000000002C003000375
:1043800000030003000378038C030C0306030603F9
:1043900006030603060304038C07780100000000EF
:1043A000000000000000000000000000000000000D
:1043B000000000000000E001180308020C060C06D3
:1043C000FC070C000C0018041802E00100000000BB
:1043D000000000000000000000000000C0036006B4
:1043E000300630003000FE01300030003000300078
:1043F00030003000300030003000FC0100000000D0
:1044000000000000000000000000000000000000AC
:10441000000000000000F007D8068C018C018C0120
:104420009801F8000C00FC00CC03060306038E0381
:10443000F800000000000000000008000E000C0062
:104440000C000C000C00EC011C030C030C030C030F
:104450000C030C030C030C030C039E07000000006C
:10446000000000000000000000000000600060008C
:104470000000000040007C00600060006000600000
:1044800060006000600060006000FC03000000004D
:10449000000000000000000000000000C001C0019A
:1044A000000000000001F001800180018001800116
:1044B0008001800180018001800180018001CC00A9
:1044C0007C00000000000000000008000E000C004E
:1044D0000C000C000C008C038C008C004C006C0059
:1044E0005C008C008C010C010C039E070000000096
:1044F0000000000000000000000040007C006000A0
:1045000060006000600060006000600060006000AB
:1045100060006000600060006000FC0300000000BC
:10452000000000000000000000000000000000008B
:104530000000000000003707EE0666066606660605
:1045400066066606660666066606FF0F0000000041
:10455000000000000000000000000000000000005B
:10456000000000000000EE011C030C030C030C0310
:104570000C030C030C030C030C039E07000000004B
:10458000000000000000000000000000000000002B
:10459000000000000000F00098010C03060606066B
:1045A0000606060606060C030C03F00000000000D9
:1045B00000000000000000000000000000000000FB
:1045C000000000000000EE011C030C060C060C06A7
:1045D0000C060C060C060C031C03EC010C000C0072
:1045E0003E0000000000000000000000000000008D
:1045F00000000000000078028C030C030603060391
:1046000006030603060304038C0378030003000378
:10461000C0070000000000000000000000000000D3
:104620000000000000009F0358063806180018001C
:1046300018001800180018001800FF000000000003
:10464000000000000000000000000000000000006A
:10465000000000000000F0031C030C020C023800F4
:10466000F000C003040304038C03FC0100000000FD
:10467000000000000000000000000000000020001A
:10468000200030003000FE013000300030003000EB
:1046900030003000300030023002E0010000000045
:1046A000000000000000000000000000000000000A
:1046B0000000000008028E030C030C030C030C0323
:1046C0000C030C030C030C039C0778010000000092
:1046D00000000000000000000000000000000000DA
:1046E0000000000000001E070C020801080118016C
:1046F0009000B000B00060006000200000000000EA
:1047000000000000000000000000000000000000A9
:10471000000000000000F70E620446046402640218
:10472000EC029C019801980198010800000000002B
:104730000000000000000000000000000000000079
:10474000000000000000BC0718011001B00060006C
:104750006000E0009000080108039E0700000000D0
:104760000000000000000000000000000000000049
:104770000000000000009E070801080108019000E9
:104780009000B00060006000600020002000240065
:104790001C000000000000000000000000000000FD
:1047A000000000000000FC018401C400440060001F
:1047B00020003000180208020C03FC010000000079
:1047C00000000000000000038000800080008000E6
:1047D00080008000800080004000200040008000B9
:1047E0008000800080008000800080008000000346
:1047F00000004000400040004000400040004000F9
:1048000040004000400040004000400040004000A8
:104810004000400040004000400040004000400098
:104820004000000000000C001000100010001000FC
:1048300010001000100010002000400020001000A8
:1048400010001000100010001000100010000C00EC
:10485000000000001C002204C204800300000000CD
:104860000000000000000000000000000000000048
:104870000000000000000000000000000000000038
:104880000000000000000000000000000000000028
:104890000000000000000000000000000000000018
:1048A0000000000000000000000000000000000008
:1048B00000000000000000000000000000000000F8
:1048C000000000000000000000000000C001C00166
:1048D000C001C001C001C001C00180008000800093
:1048E00080008000800080000000000000000000C8
:1048F0008001C003C0038001000000000000000030
:104900000000000000000000E01CE01CF01E700E23
:1049100038071803080184000000000000000000B0
:104920000000000000000000000000000000000087
:104930000000000000000000000000000000000077
:104940000000000000000000000000000000201037
:104950002010201020102010FE7FFE7F100810086D
:1049600010081008100810081008FE7FFE7F0804C9
:104970000804080408040804000000000000000007
:104980000000000000000000000000010001C0075E
:104990006019103118311839183938017001E001E7
:1049A000C0038007000F001D003900311C311C318D
:1049B0000C310C11180DE00700010001000100008E
:1049C00000000000000000000000000000001C10BB
:1049D00036186308630C63046304630263026301B3
:1049E000361D9C37802280634063406320632063D0
:1049F000306310221836081C000000000000000080
:104A00000000000000000000000000000000F000B6
:104A100098018C018C018C018C018C00CC007800F9
:104A2000183E1C083608320863046304C304C30339
:104A3000834306438E26781C00000000000000001F
:104A400000000000000000001C003C003C003000A2
:104A5000300010000C000600000000000000000004
:104A60000000000000000000000000000000000046
:104A70000000000000000000000000000000000036
:104A800000000000000000000040002000100008AE
:104A9000000C0004000600030003000380018001F5
:104AA00080018001800180018001800100030003FA
:104AB000000300060006000C000800100020004063
:104AC00000000000000000000200040008001000C8
:104AD000300020006000C000C000C00080018001E4
:104AE000800180018001800180018001C000C00040
:104AF000C0006000600030001000080004000200E8
:104B000000000000000000000000000000000000A5
:104B1000000000018003800300011C713C79783D96
:104B2000C0070001C007783D3C791C71000180037B
:104B30008003800100000000000000000000000071
:104B40000000000000000000000000000000000065
:104B5000000000000001000100010001000100014F
:104B60000001FC7F000100010001000100010001C3
:104B70000001000000000000000000000000000034
:104B80000000000000000000000000000000000025
:104B90000000000000000000000000000000000015
:104BA0000000000000000000000000000000000005
:104BB00000001C003C003C003000300010000C00E5
:104BC00006000000000000000000000000000000DF
:104BD00000000000000000000000000000000000D5
:104BE0000000FE7F00000000000000000000000048
:104BF00000000000000000000000000000000000B5
:104C000000000000000000000000000000000000A4
:104C10000000000000000000000000000000000094
:104C20000000000000000000000000000000000084
:104C300018003C003C0018000000000000000000CC
:104C40000000000000000000004000600020003074
:104C5000001000180008000C000400060002000309
:104C6000000180018000C000400060002000300092
:104C70001000180008000C000400060002000000EC
:104C80000000000000000000000000000000C0075D
:104C9000600C30181830183018200C600C600C6054
:104CA0000C600C600C600C600C600C6018201830FC
:104CB00018303018600CC007000000000000000031
:104CC00000000000000000000000000000000001E3
:104CD0008001F80180018001800180018001800154
:104CE00080018001800180018001800180018001BC
:104CF00080018001C003F81F0000000000000000D8
:104D00000000000000000000000000000000E007BC
:104D1000101C0818043004300C300C30003000181F
:104D20000008000400020001800040002020102044
:104D300008200430FC1FFC1F0000000000000000E1
:104D40000000000000000000000000000000E00380
:104D5000180E0C0C0C180C180C180018000C00067F
:104D6000C003000E00180010003000300C300C3072
:104D70000C100C18180CE0030000000000000000EC
:104D80000000000000000000000000000000000C17
:104D9000000E000E000F800E800E400E600E200EE2
:104DA000100E100E080E040E040EFE7F000E000EF4
:104DB000000E000E000E000EC07F0000000000007C
:104DC0000000000000000000000000000000F03FB4
:104DD000F03F10001000100008000800C807280C61
:104DE0001818081000300030003000300C300C3043
:104DF00004180418080CF003000000000000000074
:104E00000000000000000000000000000000800F13
:104E1000C010203010301800180008000C008C0F53
:104E20006C183C301C600C600C600C600C601860EE
:104E3000182030306018C00700000000000000009B
:104E40000000000000000000000000000000F83F2B
:104E5000F83F1C100C0804080404000400020002BF
:104E6000000100010001800080008000C000C0003F
:104E7000C000C000C000C000000000000000000032
:104E80000000000000000000000000000000E0073B
:104E9000300C18180C300C300C301C3038187008DE
:104EA000E007B007180E0C1C063806300630063036
:104EB00006300C18180CE003000000000000000091
:104EC0000000000000000000000000000000E003FF
:104ED00018040C080C180610063006300630063090
:104EE00006380C3C1836F031003000180018001855
:104EF0000C0C0C060C03F001000000000000000088
:104F000000000000000000000000000000000000A1
:104F10000000000000000000000000008001C0034D
:104F2000C00380010000000000000000000000003D
:104F30008001C003C00380010000000000000000E9
:104F40000000000000000000000000000000000061
:104F5000000000000000000000000000C000C000D1
:104F60000000000000000000000000000000000041
:104F700000000000C000C000800080004000400031
:104F800000000000000000000000000000200010F1
:104F900000080004000600038001C000600030002B
:104FA00018000C00180030006000C00080010003F1
:104FB00000060004000800100020000000000000AF
:104FC00000000000000000000000000000000000E1
:104FD000000000000000000000000000FE7F000054
:104FE0000000000000000000FE7F00000000000044
:104FF00000000000000000000000000000000000B1
:105000000000000000000000000000000400080094
:10501000100020006000C000800100030006000CAA
:10502000001800300018000C000600038001C000CA
:1050300060002000100008000400000000000000D4
:10504000000000000000000000000000C007301851
:10505000083008600C601C601C601C600030001C84
:105060000006000180008000800080000000000039
:105070008001C003C00380010000000000000000A8
:105080000000000000000000000000000000C00759
:105090006018103018200C2F8C4D864CC64CC64C16
:1050A000664C66446644662666266615CC1C0C4033
:1050B000082018303018C007000000000000000071
:1050C0000000000000000000000000000001C0011E
:1050D000C001C0014001600320032003200330060B
:1050E000100610061006F80F080C080C080C0C0C23
:1050F0000418041806181F7C0000000000000000BF
:105100000000000000000000000000000000FE079A
:10511000181C183818301830183018301818180C97
:10512000F8071818183018201860186018601860F0
:10513000186018301818FE0F000000000000000072
:105140000000000000000000000000000000C02778
:105150006038103018200C400C4004000600060097
:105160000600060006000600060006000C400C4083
:105170000C2018303018C0070000000000000000AC
:105180000000000000000000000000000000FE031E
:10519000180E181818301830183018601860186079
:1051A000186018601860186018601860183018309F
:1051B00018101818180EFE03000000000000000070
:1051C0000000000000000000000000000000FE3FA2
:1051D0001830182018601840180018081808180C03
:1051E000F80F180C180818081800180018001840B4
:1051F000184018201830FE3F00000000000000009A
:105200000000000000000000000000000000FE7F21
:105210001870184018C018801800181018101818A6
:10522000F81F181818101810180018001800180087
:105230001800180018007E000000000000000000A8
:105240000000000000000000000000000000C0138B
:10525000701C101018100C200C2004000600060012
:1052600006000600060006FC063006300C300C3046
:10527000183018303008C00700000000000000009F
:1052800000000000000000000000000000003F7E61
:105290000C180C180C180C180C180C180C180C18EE
:1052A0000C18FC1F0C180C180C180C180C180C18E7
:1052B0000C180C180C183F7E0000000000000000C5
:1052C0000000000000000000000000000000F81FC7
:1052D00080018001800180018001800180018001C6
:1052E00080018001800180018001800180018001B6
:1052F000800180018001F81F000000000000000014
:105300000000000000000000000000000000E07F3E
:10531000000600060006000600060006000600065D
:10532000000600060006000600060006000600064D
:10533000000600060006000600060E060E038E019B
:10534000FC000000000000000000000000007E7C67
:10535000181818081804180618021801980198015E
:10536000D801B803380318071806180E180C181CB3
:105370001818183018307EFC0000000000000000F3
:1053800000000000000000000000000000007E009F
:10539000180018001800180018001800180018004D
:1053A00018001800180018001800180018001840FD
:1053B000184018201830FE3F0000000000000000D8
:1053C00000000000000000000000000000001FF8C6
:1053D0001C381C381C381C3C3434343434343436D7
:1053E00074326432643264326431C431C431C431E1
:1053F000C430C43084309FFC000000000000000076
:1054000000000000000000000000000000001F7C01
:105410001C103C103410341074106410E410C410CC
:10542000C41184118413041304170416041E041CED
:10543000041C041C04181F180000000000000000D9
:105440000000000000000000000000000000C00399
:10545000300C181808100C300C300660066006601E
:105460000660066006600660066006600C200C3070
:1054700008101818300CC0030000000000000000E5
:105480000000000000000000000000000000FE0F0F
:1054900018181830186018601860186018601830F4
:1054A0001818F80F18001800180018001800180035
:1054B0001800180018007E00000000000000000026
:1054C0000000000000000000000000000000C00319
:1054D000300C18180C100C300C20066006600660AA
:1054E000066006600660066006600660E4612C33B4
:1054F0001C321816300EC007004C007C003800002B
:105500000000000000000000000000000000FE0796
:10551000181C183818301830183018301818180C93
:10552000F80798031803180718061806180E180C21
:10553000180C181C18187E780000000000000000ED
:105540000000000000000000000000000000E02754
:10555000303818300C200C200C000C00180078009B
:10556000E003800F001E00380070006004600460DB
:10557000086018303818C80F000000000000000054
:105580000000000000000000000000000000FC3FE0
:105590008C218461824182418001800180018001EF
:1055A00080018001800180018001800180018001F3
:1055B000800180018001E007000000000000000081
:1055C00000000000000000000000000000003F7C20
:1055D0000C100C100C100C100C100C100C100C10EB
:1055E0000C100C100C100C100C100C100C100C10DB
:1055F0000C1008083804E003000000000000000060
:1056000000000000000000000000000000003EF864
:10561000182018201820301030103010301060087A
:1056200060086008E00CC004C004C004800380036C
:105630008003800300010001000000000000000062
:105640000000000000000000000000000000DFF388
:105650008661862186218C210C218C238C138C134E
:105660008C134C1358125816580E380E380E380E2C
:10567000300C1004100410040000000000000000B2
:1056800000000000000000000000000000007E3E5E
:10569000180838083004300470026002E001C001CC
:1056A000C001800180034003400720062006100C43
:1056B000100C081808183E7C0000000000000000D4
:1056C00000000000000000000000000000007E7CE0
:1056D0001C10181018083008300C700460046002A8
:1056E000C002C002C00180018001800180018001F0
:1056F000800180018001E007000000000000000040
:105700000000000000000000000000000000F83F62
:1057100018180818040C040E000600070003800384
:105720008001C001C000E00060007000300038203F
:1057300018201C100C18FE1F0000000000000000C4
:105740000000000000000000C03F4000400040009A
:105750004000400040004000400040004000400049
:105760004000400040004000400040004000400039
:10577000400040004000400040004000C03F0000AA
:1057800000000000000000000000000008001800F9
:105790001800100030002000600060004000C000D1
:1057A0008000800180010001000300020006000665
:1057B0000004000C00080018001800100030002041
:1057C0000000000000000000FC03000200020002D4
:1057D00000020002000200020002000200020002B9
:1057E00000020002000200020002000200020002A9
:1057F000000200020002000200020002FC0300009E
:1058000000000000000000008007C0062008101003
:105810000000000000000000000000000000000088
:105820000000000000000000000000000000000078
:105830000000000000000000000000000000000068
:105840000000000000000000000000000000000058
:105850000000000000000000000000000000000048
:105860000000000000000000000000000000000038
:105870000000000000000000000000000000000028
:10588000FFFF0000000000007800C00000010000E1
:105890000000000000000000000000000000000008
:1058A00000000000000000000000000000000000F8
:1058B00000000000000000000000000000000000E8
:1058C00000000000000000000000000000000000D8
:1058D000000000000000000000000000F0031806B7
:1058E0000C0C0C0C000C800F700C1C0C0C0C060C1F
:1058F000060C064C0C4FF8380000000000000000B9
:1059000000000000000000000000000010001E0069
:10591000180018001800180018001800180FD818E0
:1059200038303860186018601860186018601860A7
:10593000182038307818C807000000000000000068
:105940000000000000000000000000000000000057
:10595000000000000000000000000000C007700C04
:10596000181818180C180C000C000C000C000C2057
:10597000182018103008C0070000000000000000C8
:105980000000000000000000000000000010001EE9
:10599000001800180018001800180018E01B301C30
:1059A000181818180C180C180C180C180C180C18BF
:1059B0000818181C307AE009000000000000000000
:1059C00000000000000000000000000000000000D7
:1059D000000000000000000000000000C007300CC4
:1059E000181808100C300C30FC3F0C000C000C0098
:1059F000182018107018C0070000000000000000F8
:105A00000000000000000000000000000000003E58
:105A100080C380C0C0C0C000C000C000FC1FC00068
:105A2000C000C000C000C000C000C000C000C00076
:105A3000C000C000C000F80F00000000000000001F
:105A40000000000000000000000000000000000056
:105A5000000000000000000000000000C077306C73
:105A600010181818181818181018300CF00718000B
:105A70001800F00FF03F08700C600C600C603838B4
:105A8000E00F0000000000000000000010001E00F9
:105A9000180018001800180018001800980FD818DF
:105AA0003830183018301830183018301830183096
:105AB0001830183018307EFC000000000000000094
:105AC0000000000000000000000000000000800353
:105AD000800380030000000000000001F801800145
