:030000000265FA9C
:0C65FA00787FE4F6D8FD75810702587820
:10391F00D6D0BEB0D4B0B5E7D7D3004C43445F5731
:10392F003A004C43445F483A00FFFFFFFFFFFFFFA1
:10393F00FFFFFFFFFFFFFFFFFFFFFFFFFFFFFFFF88
:10394F00FFFFFFFFFFFFFFF7BEFFFFFFDEC6388C55
:10395F00926B8E6B6E7C10AD96E73CFFFFFFFFFF07
:10396F00FFFFFFFFFFFFFFFFFFFFFFFFFFFFFFFF58
:10397F00FFFFFFFFFFFFFFFFFFFFFFFFFFFFFFFF48
:10398F00FFFFFFFFFFFFFFFFFFFFFFFFFFFFFFFF38
:10399F00FFFFFFFFFFFFFFEF5D9D15634F426C328F
:1039AF000A298819461925214531E86B8EC638FF3B
:1039BF00FFFFFFFFFFFFFFFFFFFFFFFFFFFFFFFF08
:1039CF00FFFFFFFFFFFFFFFFFFFFFFFFFFFFFFFFF8
:1039DF00FFFFFFFFFFFFFFFFFFFFFFFFFFFFFFFFE8
:1039EF00FFFFFFFFFFA53653104B1053514B0F3AFC
:1039FF006C31E92167192510E408A300620883528E
:103A0F00CBD69AFFFFFFFFFFFFFFFFFFFFFFFFFF79
:103A1F00FFFFFFFFFFFFFFFFFFFFFFFFFFFFFFFFA7
:103A2F00FFFFFFFFFFFFFFFFFFFFFFFFFFFFFFFF97
:103A3F00FFE73C637063B37CB863F54311324D29E4
:103A4F00EA21881926190519051104110410E4003B
:103A5F008308A38C72FFFFFFFFFFFFFFFFFFFFFF36
:103A6F00FFFFFFFFFFFFFFFFFFFFFFFFFFFFFFFF57
:103A7F00FFFFFFFFFFFFFFFFFFFFFFFFFFFFFFDE68
:103A8F00DB3A4B42F06C354B5432B12A2E21EB21ED
:103A9F00A91967190511041104110411041104194E
:103AAF000510E4004273AFFFFFFFFFFFFFFFFFFFB3
:103ABF00FFFFFFFFFFFFFFFFFFFFFFFFFFFFFFFF07
:103ACF00FFFFFFFFFFFFFFFFFFFFFFFFFFEF5D3276
:103ADF0009324C4B10328F2A4F2A2E19CC198921BB
:103AEF0089194719051104110410C410C4110411C8
:103AFF0004110410E400428431FFFFFFFFFFFFFFBA
:103B0F00FFFFFFFFFFFFFFFFFFFFFFFFFFFFFFFFB6
:103B1F00FFFFFFFFFFFFFFFFFFFFFFFFFF52EC194C
:103B2F0047324C2A0B21EC21EC220C5B914AEE110F
:103B3F00061926190410E410E429A7216608A31911
:103B4F00051104110410E40082BDF7FFFFFFFFFF12
:103B5F00FFFFFFFFFFFFFFFFFFFFFFFFFFFFFFFF66
:103B6F00FFFFFFFFFFFFFFFFFFFFFFA535088321CB
:103B7F00882188218921AA218A426B8C71FFFF8CB1
:103B8F00720883110408C44229DEFBEF5D5AEC086A
:103B9F0083110411041104088331E8FFDFFFFFFFD5
:103BAF00FFFFFFFFFFFFFFFFFFFFFFFFFFFFFFFF16
:103BBF00FFFFFFFFFFFFFFFFFFF7BE31C710C41965
:103BCF002519261947194729A8528A4A28AD55FFA2
:103BDF00FF31E808A319056B4D6B4DFFFFEF7D21FA
:103BEF004510C41104110411040062AD76FFFFFFEC
:103BFF00FFFFFFFFFFFFFFFFFFFFFFFFFFFFFFFFC6
:103C0F00FFFFFFFFFFFFFFFFFFB5960062110419D3
:103C1F00041105190508C44A8BB5B6EF5DBDF7FF52
:103C2F00FF6B8E006242295AAA4208FFFFFFFF5224
:103C3F00CC088311041104110408A352ADFFFFFF38
:103C4F00FFFFFFFFFFFFFFFFFFFFFFFFFFFFFFE78D
:103C5F001CFFFFFFFFFFFFFFFF634E006211041108
:103C6F0004110410E40062638EFFFFFFFFFFFFFFEC
:103C7F00FF73CF00019CF3632CB596FFFFFFFF5B33
:103C8F002D008311041104110410E42167EF3DFF8F
:103C9F00FFFFFFFFFFFFFFFFFFBDF8B5B7EF9E521E
:103CAF00CB94B3FFFFFFFFFFDF31E808A31104112F
:103CBF00041104110408A34249F7FFF7FFFFFFFFA8
:103CCF00FF4A6A00018472FFFFFFFFF7FFEFDF3A41
:103CDF000908A311041104110411041105BE18FFE2
:103CEF00FFFFFFFFFFFFFFFFFF7BF0006231E831B7
:103CFF00C70041A535FFFFEF5D214610C411041128
:103D0F00041104110410E408A39D76F7FFFFFFAD23
:103D1F00B708A308A331C7E79EF7FFF7FFA57608FB
:103D2F00A310E411041104110411051105A535FFA9
:103D3F00FFFFFFFFFFFFFFFFFFDEDB29A700831061
:103D4F00C410C410C4E71CEF9E110510E411041138
:103D5F000411041104190408C410E56BD16BD108C8
:103D6F00C5006408A50043322B9D7784B319251035
:103D7F00C41104110411041104192509269D35FFDE
:103D8F00FFFFFFFFFFFFFFFFFFFFFF73AF00621992
:103D9F0004190500825B0D9B8E1062110511041131
:103DAF0004190410E40085110539C45A817B409C25
:103DBF0022AC43A4039B837282498218C200A400E1
:103DCF00C510E4190411041905194711675AECFFBE
:103DDF00BEFFFFFFFFFFFFFFFFFFDFDEDB10C410A3
:103DEF00E41104110518A4C001888300E419051912
:103DFF000408C521448343D523FE42FEE4FF27FF79
:103E0F0007FEA4FE64FE03FDA3FCE2EC42B3836253
:103E1F002410E508C41904192619A821879000BC9D
:103E2F00D3FFFFFFFFFFFFFFFFFFDFFFFF7C100050
:103E3F0042190511052883D001F84448A300E4086E
:103E4F00C55A44ED02FDE2FE02FE66FF74FFB8FFA5
:103E5F0073F6E7F6A6F645F5A4FCC3FC62FCC2FCBC
:103E6F00C2CBE349C411061988018790A4F8019ABF
:103E7F00ECFFFFFFFFFFFFFFFFFFFFFFFFF7BE316D
:103E8F00E8008309054082C001F823F08548A300AC
:103E9F00A45A44FD02CC23DCC2FE04FE28F648F6E9
:103EAF0046F624F5E4FD64FCE3FC62FCC2E402DCAC
:103EBF0002FCE27AA40148016778C4F824F802B042
:103ECF0084E77DFFFFFFFFFFFFFFFFFFFFFFFFDE29
:103EDF00DB192500A338C4E002D822F844F8A678ED
:103EEF00A400632143728339839B82F521FD61FD19
:103EFF0022FCE2FCA2FC42FC42FC42AB2241839238
:103F0F00C352040126192598A4F844F823F802D0C7
:103F1F00A4EF9EFFFFFFFFFFFFFFFFFFFFFFFFFF6E
:103F2F00FFD69A298700A5B843F822E023F865F851
:103F3F00E8C9074883004200A3008429637AA2B32B
:103F4F0062CBA2D362BB028A82398300A400E50050
:103F5F00E508E560C4D864F844F824F823F802882B
:103F6F0083C6DBFFFFFFFFFFFFFFFFFFFFFFFFFF2B
:103F7F00FFFFFFE73D5B503108E823F843F044F8BB
:103F8F0065F909F9ABD189890648A31842000200E7
:103F9F00420061008200620062008320A350C48847
:103FAF00A5D885F865F844F844F823F823D0031012
:103FBF008229C7EF5DFFFFFFFFFFFFFFFFFFFFFF3F
:103FCF00FFFFFFFFFFFFFF326C38A5D802F823F881
:103FDF0065F866F8A7F94AFA0CFA4DEA4CD20BB914
:103FEF00A9B168A947B127B907D107E8E7F8C7F81A
:103FFF00A7F865F865F844F823F803D00228A30959
:10400F000508C45AECFFFFFFFFFFFFFFFFFFFFFF95
:10401F00FFFFFFFFFFDEFB190500C441A7C0E6F855
:10402F0003F886F8A7F887F886F8C7F929F98AF907
:10403F00ABF9ABF98BF96AF929F908F8C7F8A6F8C3
:10404F0086F865F864F823F002B106292500E4101C
:10405F00E4192519259D14FFFFFFFFFFFFFFFFFF49
:10406F00FFFFFFFFFFAD96006208829535CEBAA223
:10407F008BD044F825F887F8A7F8C7F8A7F887F882
:10408F0086F886F886F887F8A7F8A7F8A6F885F8CF
:10409F0065F864F024B864930DB6BB63CF08831141
:1040AF000410E421663A49EF5DFFFFFFFFFFFFFFBA
:1040BF00FFFFFFFFFF94D3004210E4CEBBFFFFE7EB
:1040CF00BEB576AACCC107E045F845F846F866F8C4
:1040DF0086F886F886F886F865F845F865E865D0BD
:1040EF0044A84388019082D73CEFFF955508831170
:1040FF000411041905194694B3FFFFFFFFFFFFFFDB
:10410F00FFFFFFFFFF94B300412186DF5DFFFFFF3D
:10411F00FFFFFFE7DFC67AB4D3B34EC22AD168E000
:10412F00E6E8A6E8A5E8A5D8E6C988A906A822A8C2
:10413F0002A000C800D800E5F7E7FFADF810C410E3
:10414F00E4110410E411054A8BFFFFFFFFFFFFFF8F
:10415F00FFFFFFFFFFA555004129A7DF5DF7FFFF19
:10416F00FFFFFFFFFFFFFFFFFFEFFFDF7DCEDBCE88
:10417F0059CDF8CDD7C5F7CE79BEFBA2ABF003F87A
:10418F0045D042E843F000D472DFFFAE3910E4109F
:10419F00E4110410E411052987FFFFFFFFFFFFFF64
:1041AF00FFFFFFFFFFCE5908832146D71CF7FFFF04
:1041BF00FFFFFFFFFFFFFFFFFFFFFFFFFFFFFFFF00
:1041CF00FFFFFFFFFFFFFFFFFFEFFFBA8BF804F8C2
:1041DF0045E062F044F800DB8EDFFFA5F810C41055
:1041EF00E410E4110410E41925FFFFFFFFFFFFFFA8
:1041FF00FFFFFFFFFFF7BE29870883B639F7FFF7E9
:10420F00DFFFFFFFFFFFFFFFFFFFFFFFFFFFFFFFCF
:10421F00FFFFFFFFFFFFFFFFFFE7BEBA4AF803F8FC
:10422F0045F864F844F800E36ED7FF8CF408831167
:10423F000410E410E410E41905FFFFFFFFFFFFFF78
:10424F00FFFFFFFFFFFFFF73EF00008472EFFFEF31
:10425F00BEFFDFFFFFFFFFFFFFFFFFFFFFFFFFFFC0
:10426F00FFFFFFFFFFFFFFFFFFE7DFBA8BF803F84A
:10427F0045F845F823F800D4D3D7FF5B4E00213A19
:10428F0029A555088310C41925FFFFFFFFFFFFFF66
:10429F00FFFFFFFFFFFFFFDEFB08A331E8DF9EE715
:1042AF009EEFBFFFFFFFFFFFFFFFFFFFFFFFFFFFC0
:1042BF00FFFFFFFFFFFFFFFFFFF7FFBC51E002F81B
:1042CF0003F003E043C2ECCF7EBEFC2146002194F5
:1042DF00D3FFFF845100002987FFFFFFFFFFFFFF80
:1042EF00FFFFFFFFFFFFFFFFFF845100008CF4EF84
:1042FF00FFE79EEFBFFFDFFFFFFFFFFFFFFFFFFFA8
:10430F00FFFFFFFFFFFFFFFFFFFFFFDF3DBD55BCBF
:10431F0052BC72B5B7C75DDFFF6BF000003A09F70B
:10432F00BFFFFFFFFF9D14A555FFFFFFFFFFFFFF1F
:10433F00FFFFFFFFFFFFFFFFFFFFFF4AAC08A4BE19
:10434F00BBE7DFE77EEFBEF7DFFFDFFFFFFFFFFF1C
:10435F00FFFFFFFFFFFFFFFFFFFFDFF7DFEFFFDFD6
:10436F00DFD7BFD79EDFDFA5D808831126D6DBFFA7
:10437F00FFFFFFFFFFFFFFFFFFFFFFFFFFFFFFFF3E
:10438F00FFFFFFFFFFFFFFFFFFEE79DC8B312121E6
:10439F00A9CF3DDFBFDF7EE79EEFBEEFBFF7DFF7B1
:1043AF00DFF7DFF7DFF7DFEFBFEFBEE79EDF7ED789
:1043BF005ED75EDFDFB69A19260842A3EDFFBFFF77
:1043CF00FFFFFFFFFFFFFFFFFFFFFFFFFFFFFFFFEE
:1043DF00FFFFFFFFFFFFFFDD74DBC0FE00EE424279
:1043EF00022189B67BDFDFD77EDF7EDF7EE79EE7A8
:1043FF009EE79EE79EE79EDF7EDF7ED75DD75DDF80
:10440F009EE7FFA5F8110718E3C502FD60D3E6EE9E
:10441F00DBFFFFFFFFFFFFFFFFFFFFFFFFFFFFFFC1
:10442F00FFFFFFFFFFF79EBA84FCC1FE42FE82FE34
:10443F00A2838121457474C75EDFDFD77ED75ED735
:10444F005DD75ED75ED75DD75DD75EDF9EE7FFC7CF
:10445F003D63F108845242E626FF29FE86F3E0C34E
:10446F006AFFFFFFFFFFFFFFFFFFFFFFFFFFFFFFE2
:10447F00FFFFFFFFFFDE18D2C1FDA2FE22FE42FEAC
:10448F0042FE62D4E26A4142497453A63BC73ED70B
:10449F00BFD7BFD7BFDFBFD7BFC73EA61A63F229AB
:1044AF00A74182B422FE62FE83FEAAFF0FFD67BA08
:1044BF0063EF3CFFFFFFFFFFFFFFFFFFFFFFFFFF6C
:1044CF00FFFFFFFFFFE69AD280FD21FDC2F5E2F567
:1044DF00C2F582FD82FD62DC619B216A846AE96319
:1044EF002C63AF7411636E632C5A8952047A81CB9B
:1044FF00C2FCE2FD62FD82FDC2FDC2FDE4FD24CAE5
:10450F0062E71CFFFFFFFFFFFFFFFFFFFFFFFFFF44
:10451F00FFFFFFFFFFFFFFCCB1D281F3C0FCC1FD56
:10452F0002FD02FCE2FCC2FCC2FC81FB80C9C0811F
:10453F00A4AD35CE599C718121DA00FBA1FC82FC20
:10454F00A2FC82FCA2FD02FD22FCE2FC00DA60CCA0
:10455F0090FFFFFFFFFFFFFFFFFFFFFFFFFFFFFFCB
:10456F00FFFFFFFFFFFFFFFFFFDE59C40DCB06D29A
:10457F00E4DB03DB03DAE3D2C3C2A4B309BCD2F793
:10458F009EFFFFFFFFFFFFE6FBB40EBAA6D283E24A
:10459F00E3EB02EB22E322DB03D2E4C36AD5B6FFDF
:0945AF00FFFFFFFFFFFFFFFFFF0C
:105878009000001249DC00000000125D8B90000AC5
:10588800E4F0A374ACF074FFA3F0A3F07B407A01BA
:10589800E4FDFCFFFE12638390000AE4F0A374ACFD
:1058A800F074FFA3F0A3F07B407A01E4FDFCFFFE57
:1058B80012638390000AE4F0A374ACF0A374F8F0C8
:1058C800A3E4F07B407A01FDFCFFFE1263839000A5
:1058D8000AE4F0A374ACF0A37407F0A374E0F07BBF
:1058E800407A01E4FDFCFFFE12638390000AE4F0B5
:1058F800A374ACF0A3E4F0A3741FF07B407A01E436
:10590800FDFCFFFE12638390000AE4F0A374ACF080
:1059180074FFA3F0A3F07B407A01E4FDFCFFFE12C4
:1059280063837BFF7A39791F90000B74F8F0A3E446
:10593800F074FFA3F0A3F0A37420F0E4A3F0FDFC3F
:105948007F28FE125C007BFF7A39792A90000B745D
:10595800F8F0A3E4F074FFA3F0A3F0A37420F0E43C
:10596800A3F07D21FC7F0AFE12642F90000A7403C5
:10597800F0A374F8F0A3E4F074FFA3F0A3F0A37409
:1059880020F07B407A017D217C007F6A7E001261D5
:10599800717BFF7A39793190000B74F8F0A3E4F049
:1059A80074FFA3F0A3F0A37420F0E4A3F07D42FCFD
:1059B8007F0AFE12642F90000A7403F0A374F8F0B3
:1059C800A3E4F074FFA3F0A3F0A37420F07BAC7AF7
:1059D800007D427C007F6A7E00126171900000E0C9
:1059E800FCA3E0FDA3E0FEA3E0FF9000081249D06D
:1059F80090000C7404F0A374F8F0A3E4F074FFA30F
:105A0800F0A3F0A37420F07D637C007F0A7E00126F
:105A18006027900000E0FCA3E0FDA3E0FEA3E0FF08
:105A28007BAE7A4779E1783D1245BF900000124974
:105A3800D090000AE4F0A37428F0A374FFF0A374D4
:105A480039F0A37438F07B287A007D5F7C007FA052
:085A58007E00125ED90258A085
:1065CB00EF4E60157D087C07ED1DAA0470011C4A77
:0965DB0070F6EF1F70EA1E80E764
:0165E4002294
:1065AD00C294E4FEC290EF30E704D2918002C29112
:0D65BD00D290EF25E0FF0EEEB408E9D29475
:0165CA0022AE
:0566060012660B7F335A
:03660B000265AD78
:0765E5002422FFE03400FE58
:0E65EC00AD07AC06ECFF1265ADAF050265AD64
:08660E00C2931265ADD2932284
:10656900900032EEF0A3EFF0A3ECF0A3EDF07F2A58
:1065790012660E900032E0FEA3E0FF1265ECAE0257
:10658900AF031265EC7F2B12660E900035E0900088
:10659900341265E5900039E09000381265E57F2CEA
:0465A90012660E2246
:105D8B00C2927F1E7E001265CBD2927F647E001280
:105D9B0065CBD2957F647E001265CB7F1112660EA8
:105DAB007F3612660E7F7012660B7F3A12660E7F7D
:105DBB000512660B7FB212660E7F0C12660B7F0C00
:105DCB0012660BE4FF1266067F3312660B7FB71267
:105DDB00660E7F3512660B7FBB12660E7F35126621
:105DEB000B7FC012660E7F2C12660B7FC212660EE3
:105DFB007F0112660B7FC312660E7F1312660B7F39
:105E0B00C412660E7F2012660B7FC612660E7F0FC2
:105E1B0012660B7FD012660E7FA412660B7FA11247
:105E2B00660B7FD612660E7FA112660B7FE01266A1
:105E3B000E7FF012660BE4FF12660B7F0412660BEB
:105E4B007F0412660B7F0412660B7F0512660B7FB5
:105E5B00291266067F3E12660B7F3812660B7F1285
:105E6B0012660B7F1212660B7F2812660B7F3012A5
:105E7B00660B7FE112660E7FF012660B7F071266D0
:105E8B000B7F0A12660B7F0D12660B7F0B12660BD4
:105E9B007F0712660B7F281266067F3E12660B7F0A
:105EAB003612660B7F1412660B7F1412660B7F295A
:105EBB0012660B7F3212660B7F2112660E7F111258
:0E5ECB00660E7F787E001265CB7F2902660E80
:1000030000000000000000000000000000000404E5
:10001300040404000004000014140A00000000009B
:100023000000000000000A0A1F0A0A1F0A0A000053
:1000330000040E1505060C14150E0400000012151D
:100043000D152E2C2A1200000000040A0A3615157D
:100053002916000002020100000000000000000059
:100063001008080404040404080810000204040827
:10007300080808080404020000000004150E0E1509
:100083000400000000000008083E0808000000000B
:100093000000000000000000020201000000000058
:1000A300003F00000000000000000000000000000E
:1000B30000020000002010100808040402020100DE
:1000C30000000E1111111111110E000000000406A1
:1000D30004040404040E000000000E1111080402BD
:1000E300011F000000000E11100C1010110E000073
:1000F3000000080C0C0A091F081C000000001F0167
:10010300010F1110110E000000000C12010D13114C
:10011300110E000000001E1008080404040400006F
:1001230000000E11110E1111110E000000000E112E
:100133001119161009060000000000000400000059
:10014300000400000000000000040000000404009C
:100153000000100804020204081000000000000060
:100163003F003F00000000000000020408101008D8
:100173000402000000000E11110804040004000032
:1001830000001C22292D2D1D221C00000000040448
:100193000C0A0A1E1233000000000F12120E121274
:1001A300120F000000001E1101010101110E0000D9
:1001B30000000F1212121212120F000000001F1281
:1001C3000A0E0A02121F000000001F120A0E0A0282
:1001D3000207000000001C1201013911120C00007B
:1001E30000003312121E12121233000000001F040B
:1001F30004040404041F000000003E080808080863
:1002030008080907000037120A060A12123700000D
:100213000000070202020202223F000000003B1B13
:100223001B1B15151535000000003B1216161A1A74
:100233001217000000000E1111111111110E000010
:1002430000000F12120E02020207000000000E113E
:1002530011111117190E180000000F12120E0A12B5
:100263001237000000001E1101060810110F0000D4
:1002730000001F1504040404040E000000003312E0
:1002830012121212120C000000003312120A0A0C8E
:10029300040400000000151515150E0A0A0A0000D3
:1002A30000001B0A0A04040A0A1B000000001B0AC0
:1002B3000A0A0404040E000000001F0908040402D3
:1002C300121F00001C0404040404040404041C009E
:1002D3000002020404040808081010000E080808AD
:1002E3000808080808080E00040A000000000000BF
:1002F3000000000000000000000000000000003FBC
:1003030002040000000000000000000000000000E4
:10031300000C121C123C000000030202020E121217
:10032300120E000000000000001C1202120C00005C
:1003330000181010101C1212123C000000000000E4
:10034300000C121E021C000000182404041E0404E6
:10035300041E000000000000003C120C021C221CC2
:1003630000030202020E12121237000000040400FE
:1003730000060404040E000000080800000C08082E
:100383000808080700030202021A0A060A130000FB
:100393000007040404040404041F00000000000018
:1003A300000F15151515000000000000000F1212B4
:1003B3001237000000000000000C1212120C0000A3
:1003C30000000000000F1212120E020700000000CE
:1003D300001C1212121C103800000000001B060241
:1003E3000207000000000000001E020C101E0000A7
:1003F30000000004041E0404041C000000000000AC
:10040300001B1212123C000000000000001B0A0A2D
:1004130004040000000000000015150E0A0A000085
:1004230000000000001B0A040A1B0000000000007B
:10043300003312120C08040300000000001E08041D
:10044300041E000018080808080C0808080818000B
:100453000808080808080808080808080604040427
:100463000408040404040600160900000000000048
:100473000000000000000000000000000000000079
:100483000000000000000008080808080808000031
:100493001818000000486C2412000000000000003F
:1004A300000000000000002424247F1212127F1297
:1004B300121200000000081C2A2A0A0C1828282AF5
:1004C3002A1C080800000022251515152A58545423
:1004D300542200000000000C1212120A7625291182
:1004E300916E0000000606040300000000000000F7
:1004F3000000000000402010100808080808081039
:1005030010204000000204080810101010101008FA
:10051300080402000000000008086B1C1C6B08089C
:100523000000000000000000080808087F08080811
:1005330008000000000000000000000000000000B0
:10054300060604030000000000000000FE00000097
:100553000000000000000000000000000000000098
:100563000606000000008040402020101008080408
:100573000402020000000018244242424242424266
:1005830024180000000000080E08080808080808DE
:10059300083E00000000003C4242422020100804B4
:1005A300427E00000000003C4242201820404042AE
:1005B300221C0000000000203028242422227E2058
:1005C300207800000000007E0202021A264040420A
:1005D300221C0000000000382402021A2642424274
:1005E300241800000000007E2222101008080808CA
:1005F300080800000000003C424242241824424202
:10060300423C00000000001824424242645840402B
:10061300241C000000000000000018180000000067
:10062300181800000000000000000008000000008F
:100633000008080400000040201008040204081009
:10064300204000000000000000007F0000007F0049
:1006530000000000000000020408102040201008E1
:10066300040200000000003C4242464020101000FB
:10067300181800000000001C225A555555552D42EC
:10068300221C00000000000808181414243C224215
:1006930042E700000000001F2222221E22424242A3
:1006A300221F00000000007C4242010101010142BF
:1006B300221C00000000001F2242424242424242EA
:1006C300221F00000000003F4212121E12120242BB
:1006D300423F00000000003F4212121E12120202AB
:1006E300020700000000003C2222010101712122C7
:1006F300221C0000000000E7424242427E42424286
:1007030042E700000000003E08080808080808083F
:10071300083E00000000007C101010101010101094
:100723001010110F0000007722120A0E0A12122273
:100733002277000000000007020202020202020206
:10074300427F000000000077363636362A2A2A2AEE
:100753002A6B0000000000E346464A4A52525262A6
:10076300624700000000001C2241414141414141D8
:10077300221C00000000003F424242423E020202AD
:10078300020700000000001C2241414141414D533A
:10079300321C60000000003F4242423E12122222FD
:1007A30042C700000000007C42420204182040427D
:1007B300423E00000000007F4908080808080808B6
:1007C300081C0000000000E742424242424242420B
:1007D300423C0000000000E7424222242414141883
:1007E300080800000000006B494949495555362265
:1007F30022220000000000E74224241818182424B1
:1008030042E70000000000772222141408080808B9
:10081300081C00000000007E212010100804044280
:10082300423F00000078080808080808080808087C
:1008330008087800000002020404080808101020C9
:1008430020204040001E1010101010101010101027
:1008530010101E00003844000000000000000000DB
:100863000000000000000000000000000000000085
:10087300000000FF00060800000000000000000068
:1008830000000000000000000000003C42784442E9
:1008930042FC0000000000030202021A2642424208
:1008A300261A000000000000000000384402020283
:1008B3004438000000000060404040784442424217
:1008C30064D80000000000000000003C427E0202E9
:1008D300423C0000000000F08808087E0808080871
:1008E300083E0000000000000000007C22221C02E1
:1008F3003C42423C000000030202023A46424242AA
:1009030042E700000000000C0C00000E0808080875
:10091300083E000000000030300000382020202076
:100923002020221E0000000302020272120A161285
:10093300227700000000000E0808080808080808CD
:10094300083E0000000000000000007F9292929297
:1009530092B70000000000000000003B4642424204
:1009630042E70000000000000000003C4242424217
:10097300423C0000000000000000001B26424242EF
:10098300221E020700000000000000784442424299
:10099300447840E000000000000000774C040404A9
:1009A300041F0000000000000000007C42023C40E5
:1009B300423E0000000000000008083E0808080846
:1009C3000830000000000000000000634242424281
:1009D30062DC000000000000000000E74224241451
:1009E3000808000000000000000000EB49495555CD
:1009F30022220000000000000000007624181818CE
:100A0300246E000000000000000000E742242414CC
:100A130018080807000000000000007E22100808E4
:100A2300447E000000C02020202020102020202011
:100A33002020C000101010101010101010101010F3
:100A43001010101000060808080808100808080805
:100A5300080806000C32C20000000000000000007D
:100A63000000000000000000000000000000000083
:100A73000000000000000000000000000000000073
:100A83000000000000000000000000000000000063
:100A93000000000000000000000000006000600093
:100AA30060006000600060006000400020002000E3
:100AB30020000000000000006000600060000000F3
:100AC300000000000000000060066006300398018B
:100AD3008800440000000000000000000000000047
:100AE3000000000000000000000000000000000003
:100AF30000000000000000000000000010021002CF
:100B030010021002FE07FE0708020801080108018F
:100B13000801FE07FE0704010401040104010000AB
:100B23000000000000000000000040004000F00151
:100B330058034C03CC034C0058007000E000C00184
:100B4300C00140034C035C034C034801F000400028
:100B53004000000000000000000000000E010A0138
:100B6300910091009100510051003A00AE03A002A0
:100B730050045004480448044804840284030000D9
:100B830000000000000000000000000038006C00BE
:100B93006C006C006C006C002C0098071C011A019F
:100BA300330133016301E300C308C6093C070000B6
:100BB30000000000000000000C001C0010001000EA
:100BC3000800040000000000000000000000000016
:100BD3000000000000000000000000000000000012
:100BE300000000000000000000040002000180007B
:100BF3008000400040002000200020002000200052
:100C0300200020004000400080008000000100021E
:100C130000040000000000000200040008001000AF
:100C23001000200020004000400040004000400031
:100C330040004000200020001000100008000400C5
:100C4300020000000000000000000000000000009F
:100C53004000C0004000460C4E0FD001F0015E0F73
:100C6300460C40004000400000000000000000006F
:100C73000000000000000000000000000000000071
:100C8300000040004000400040004000FE0F4000D4
:100C93004000400040004000000000000000000051
:100CA3000000000000000000000000000000000041
:100CB3000000000000000000000000000000000031
:100CC30000000000000000000C001C0010001000D9
:100CD3000800040000000000000000000000000005
:100CE300000000000000000000000000FE070000FC
:100CF30000000000000000000000000000000000F1
:100D030000000000000000000000000000000000E0
:100D130000000000000000000000000000000000D0
:100D230000000000000000001C001C001C0000006C
:100D330000000000000000000004000600020003A1
:100D4300000100018000800040004000600020009E
:100D5300200010001000080008000C00040006002A
:100D63000200000000000000000000000000F0008E
:100D730098010C030C03060606060606060606067D
:100D83000606060606060C030C039801F000000095
:100D93000000000000000000000000000000400010
:100DA3007C00600060006000600060006000600024
:100DB300600060006000600060006000FC030000F1
:100DC3000000000000000000000000000000F80028
:100DD3008401020306030603000300018001C0002F
:100DE300600020001000080204020602FE03000057
:100DF3000000000000000000000000000000780078
:100E0300C6008601860180018001C0007000800158
:100E1300000100030003060306038601F800000037
:100E2300000000000000000000000000000080013E
:100E33008001C001A001A001900188018801840103
:100E43008201FE0F8001800180018001E007000024
:100E53000000000000000000000000000000FC0390
:100E630004000400040004000400F4008C010403E3
:100E7300000300030603060382018401F800000057
:100E83000000000000000000000000000000E0017E
:100E930018030C030C0004000600E60116030E06FB
:100EA30006060606060604060C021803F0000000F8
:100EB3000000000000000000000000000000F80730
:100EC3000C060402040100010001800080004000C0
:100ED30040004000600060006000600060000000AF
:100EE3000000000000000000000000000000F80106
:100EF3000C030606060606060C021C03F000C801D6
:100F03000C0306060606060606060C03F00100009F
:100F13000000000000000000000000000000F000DE
:100F23000C010C03060206060606060606078C06D7
:100F330078060006000300030C018C017800000012
:100F4300000000000000000000000000000000009E
:100F53000000000000000000E000E000E0000000EE
:100F63000000000000000000E000E000E0000000DE
:100F7300000000000000000000000000000000006E
:100F8300000000000000000060006000000000009E
:100F9300000000000000000000006000600040004E
:100FA30020002000000000000000000000040002F8
:100FB3000001800040002000100008000400080029
:100FC3001000200040008000000100020004000027
:100FD300000000000000000000000000000000000E
:100FE3000000000000000000FE07000000000000F9
:100FF300FE070000000000000000000000000000E9
:1010030000000000000000000000000004000800D1
:1010130010002000400080000001000200040002D4
:1010230000018000400020001000080004000000C0
:101033000000000000000000000000000000E003CA
:101043001806040C040C0C0C0C0C00078001400067
:101053004000400000000000E000E000E00000006D
:10106300000000000000000000000000E000180382
:101073000C02CC0564056605A605B604B604B604E1
:10108300B604B602E4010C040C021803F0000000DD
:1010930000000000000000000000000000006000ED
:1010A30060005000D0009000900088008801080183
:1010B300F801040304030402020202060F0F0000F6
:1010C3000000000000000000000000000000FE001F
:1010D3008C030C030C030C030C038C01FC000C03AA
:1010E3000C020C060C060C060C060C03FE01000099
:1010F3000000000000000000000000000000E0030A
:1011030018030C060C04040406000600060006007F
:101113000600060006040C040C021803F00000008D
:1011230000000000000000000000000000007F003D
:101133008C010C030C030C060C060C060C060C06A7
:101143000C060C060C060C030C038C017F0000003C
:101153000000000000000000000000000000FF038A
:10116300060306040604060086008600FE008600C9
:10117300860086000600060406040602FF0300003C
:101183000000000000000000000000000000FF035A
:10119300060306040604060086008600FE00860099
:1011A3008600860006000600060006001F000000F9
:1011B3000000000000000000000000000000F0003C
:1011C30018010C020C0204020600060006000600C9
:1011D300C60F060306030C030C031803F0000000FC
:1011E30000000000000000000000000000000F0FDE
:1011F300060606060606060606060606FE07060693
:101203000606060606060606060606060F0F000075
:101213000000000000000000000000000000FC03CC
:1012230060006000600060006000600060006000BB
:10123300600060006000600060006000FC0300006C
:101243000000000000000000000000000000F8079C
:10125300C000C000C000C000C000C000C000C0008B
:10126300C000C000C000C000C000C000C000C60075
:1012730066003C0000000000000000000000CF03F7
:101283008601C60046002600160036002E006E00BA
:101293004600C60086008601060106038F0700008C
:1012A30000000000000000000000000000001F001C
:1012B30006000600060006000600060006000600FB
:1012C300060006000600060406040602FF030000EB
:1012D30000000000000000000000000000000707FD
:1012E300860386038E038E034E034E034A035A037B
:1012F3005A033A033203320332031203870700000F
:1013030000000000000000000000000000008E0F3D
:101313000C021C021C023402340264026402440202
:10132300C402840284038403040304031F02000031
:101333000000000000000000000000000000F000BA
:1013430098010C030C0206060606060606060606A8
:101353000606060606060C020C039801F0000000C0
:101363000000000000000000000000000000FF007B
:101373000603060606060606060606068603FE009E
:101383000600060006000600060006001F00000017
:101393000000000000000000000000000000F0005A
:1013A30098010C030C020606060606060606060648
:1013B3000606060676064C02CC039801F000800769
:1013C3000003000000000000000000000000FF0117
:1013D300060306060606060606060603FE00460084
:1013E300C600860086010603060306060F0E0000EC
:1013F3000000000000000000000000000000F802F0
:101403000C030602060206000E003C00F800E0038F
:10141300800300070206020606060C03F001000023
:101423000000000000000000000000000000FE07B4
:101433006204610861086000600060006000600091
:10144300600060006000600060006000F801000060
:1014530000000000000000000000000000001E0764
:101463000C020C020C020C020C020C020C020C0209
:101473000C020C020C020C020C021801F00000001A
:1014830000000000000000000000000000000F0743
:101493000602040104010C010C0188008800980075
:1014A3009800500050007000300020002000000021
:1014B3000000000000000000000000000000F70E24
:1014C300620442044604460464026402E402E40241
:1014D3009C029C0198019801880188008800000003
:1014E30000000000000000000000000000009E0754
:1014F3000C01080118019000B0006000200060009A
:101503006000D00090008801080104038E070000EA
:1015130000000000000000000000000000000F0FAA
:10152300060404020C0208011801B800B0007000A0
:10153300600060006000600060006000F80100006F
:101543000000000000000000000000000000FC0795
:101553000C020603020180018000400040002000CD
:1015630020001000180008040C040402FE0300000D
:101573000000000000000000E00320002000200025
:101583002000200020002000200020002000200058
:101593002000200020002000200020002000200048
:1015A300E00300000000000000000000040004004D
:1015B3000800080010001000100020002000400068
:1015C3004000C00080008000000100010002000212
:1015D30000020004000000007C00400040004000C6
:1015E30040004000400040004000400040004000F8
:1015F30040004000400040004000400040004000E8
:101603007C00000000006000900008010000000062
:1016130000000000000000000000000000000000C7
:1016230000000000000000000000000000000000B7
:1016330000000000000000000000000000000000A7
:101643000000000000000000000000000000000097
:101653000000000000000000000000000000000087
:101663000000FF0F000000001800600000000000F1
:101673000000000000000000000000000000000067
:101683000000000000000000000000000000000057
:101693000000000000000000000000000000000047
:1016A3000000000000000000F0010C030C03000325
:1016B300E0031C030E03060306038E0B7C0E0000DF
:1016C30000000000000000000000000008000E0001
:1016D3000C000C000C000C00CC013C031C060C0697
:1016E3000C060C060C060C060C021C03E40100009D
:1016F30000000000000000000000000000000000E7
:101703000000000000000000F0008C018C01860145
:1017130006000600060006020C020C01F0000000A1
:101723000000000000000000000000000002C003F1
:10173300000300030003000378038C030C03060378
:10174300060306030603060304038C07780100005F
:101753000000000000000000000000000000000086
:101763000000000000000000E001180308020C065E
:101773000C06FC070C000C0018041802E001000022
:101783000000000000000000000000000000C00393
:101793006006300630003000FE01300030003000BB
:1017A300300030003000300030003000FC01000019
:1017B3000000000000000000000000000000000026
:1017C3000000000000000000F007D8068C018C0127
:1017D3008C019801F8000C00FC00CC0306030603FF
:1017E3008E03F800000000000000000008000E0057
:1017F3000C000C000C000C00EC011C030C030C038C
:101803000C030C030C030C030C030C039E070000D6
:101813000000000000000000000000000000600065
:1018230060000000000040007C0060006000600079
:10183300600060006000600060006000FC03000066
:101843000000000000000000000000000000C001D4
:10185300C001000000000001F0018001800180014F
:10186300800180018001800180018001800180016D
:10187300CC007C00000000000000000008000E0007
:101883000C000C000C000C008C038C008C004C0032
:101893006C005C008C008C010C010C039E070000A3
:1018A30000000000000000000000000040007C0079
:1018B3006000600060006000600060006000600025
:1018C300600060006000600060006000FC030000D6
:1018D3000000000000000000000000000000000005
:1018E30000000000000000003707EE0666066606EB
:1018F300660666066606660666066606FF0F00004F
:1019030000000000000000000000000000000000D4
:101913000000000000000000EE011C030C030C0398
:101923000C030C030C030C030C030C039E070000B5
:1019330000000000000000000000000000000000A4
:101943000000000000000000F00098010C030606F0
:1019530006060606060606060C030C03F000000046
:101963000000000000000000000000000000000074
:101973000000000000000000EE011C030C060C0632
:101983000C060C060C060C060C031C03EC010C00E5
:101993000C003E00000000000000000000000000FA
:1019A300000000000000000078028C030C03060313
:1019B300060306030603060304038C0378030003EC
:1019C3000003C0070000000000000000000000004A
:1019D30000000000000000009F03580638061800AE
:1019E300180018001800180018001800FF00000065
:1019F30000000000000000000000000000000000E4
:101A03000000000000000000F0031C030C020C02A5
:101A13003800F000C003040304038C03FC0100003E
:101A230000000000000000000000000000000000B3
:101A33002000200030003000FE0130003000300074
:101A4300300030003000300030023002E00100008E
:101A53000000000000000000000000000000000083
:101A630000000000000008028E030C030C030C03AB
:101A73000C030C030C030C030C039C0778010000FC
:101A83000000000000000000000000000000000053
:101A930000000000000000001E070C0208010801FE
:101AA30018019000B000B00060006000200000004A
:101AB3000000000000000000000000000000000023
:101AC3000000000000000000F70E620446046402F8
:101AD3006402EC029C01980198019801080000003F
:101AE30000000000000000000000000000000000F3
:101AF3000000000000000000BC0718011001B00046
:101B030060006000E0009000080108039E070000E9
:101B130000000000000000000000000000000000C2
:101B230000000000000000009E07080108010801F2
:101B330090009000B0006000600060002000200072
:101B430024001C0000000000000000000000000052
:101B53000000000000000000FC018401C4004400F8
:101B6300600020003000180208020C03FC01000092
:101B730000000000000000000003800080008000DF
:101B83008000800080008000800040002000400032
:101B93008000800080008000800080008000800042
:101BA30000030000400040004000400040004000AF
:101BB3004000400040004000400040004000400022
:101BC3004000400040004000400040004000400012
:101BD30040004000000000000C0010001000100046
:101BE3001000100010001000100020004000200022
:101BF3001000100010001000100010001000100062
:101C03000C00000000001C002204C204800300003A
:101C130000000000000000000000000000000000C1
:101C230000000000000000000000000000000000B1
:101C330000000000000000000000000000000000A1
:101C43000000000000000000000000000000000091
:101C53000000000000000000000000000000000081
:101C63000000000000000000000000000000000071
:101C73000000000000000000000000000000C001A0
:101C8300C001C001C001C001C001C00180008000CB
:101C930080008000800080008000000000000000C1
:101CA30000008001C003C0038001000000000000A9
:101CB30000000000000000000000E01CE01CF01E1B
:101CC300700E3807180308018400000000000000AC
:101CD3000000000000000000000000000000000001
:101CE30000000000000000000000000000000000F1
:101CF30000000000000000000000000000000000E1
:101D030020102010201020102010FE7FFE7F1008CE
:101D1300100810081008100810081008FE7FFE7F36
:101D23000804080408040804080400000000000074
:101D3300000000000000000000000000000100019E
:101D4300C00760191031183118391839380170017A
:101D5300E001C0038007000F001D003900311C3172
:101D63001C310C310C11180DE007000100010001BA
:101D73000000000000000000000000000000000060
:101D83001C1036186308630C630463046302630264
:101D93006301361D9C378022806340634063206368
:101DA3002063306310221836081C00000000000076
:101DB3000000000000000000000000000000000020
:101DC300F00098018C018C018C018C018C00CC00FB
:101DD3007800183E1C083608320863046304C30401
:101DE300C303834306438E26781C000000000000D3
:101DF300000000000000000000001C003C003C004C
:101E03003000300010000C0006000000000000004D
:101E130000000000000000000000000000000000BF
:101E230000000000000000000000000000000000AF
:101E3300000000000000000000000040002000102F
:101E43000008000C000400060003000300038001E7
:101E530080018001800180018001800180010003F5
:101E63000003000300060006000C00080010002019
:101E73000040000000000000000002000400080011
:101E83001000300020006000C000C000C0008001CE
:101E93008001800180018001800180018001C000F8
:101EA300C000C000600060003000100008000400A3
:101EB300020000000000000000000000000000001D
:101EC3000000000000018003800300011C713C79C5
:101ED300783DC0070001C007783D3C791C710001C3
:101EE3008003800380010000000000000000000068
:101EF30000000000000000000000000000000000DF
:101F030000000000000000010001000100010001C9
:101F130000010001FC7F000100010001000100013C
:101F230000010001000000000000000000000000AC
:101F3300000000000000000000000000000000009E
:101F4300000000000000000000000000000000008E
:101F5300000000000000000000000000000000007E
:101F6300000000001C003C003C003000300010006A
:101F73000C0006000000000000000000000000004C
:101F8300000000000000000000000000000000004E
:101F930000000000FE7F00000000000000000000C1
:101FA300000000000000000000000000000000002E
:101FB300000000000000000000000000000000001E
:101FC300000000000000000000000000000000000E
:101FD30000000000000000000000000000000000FE
:101FE300000018003C003C00180000000000000046
:101FF300000000000000000000000040006000201E
:102003000030001000180008000C00040006000255
:102013000003000180018000C00040006000200038
:1020230030001000180008000C0004000600020035
:10203300000000000000000000000000000000009D
:10204300C007600C30181830183018200C600C6072
:102053000C600C600C600C600C600C600C60182051
:10206300183018303018600CC00700000000000062
:10207300000000000000000000000000000000005D
:1020830000018001F801800180018001800180014D
:102093008001800180018001800180018001800135
:1020A300800180018001C003F81F000000000000D0
:1020B300000000000000000000000000000000001D
:1020C300E007101C0818043004300C300C300030CA
:1020D30000180008000400020001800040002020D6
:1020E300102008200430FC1FFC1F0000000000002B
:1020F30000000000000000000000000000000000DD
:10210300E003180E0C0C0C180C180C180018000C1B
:102113000006C003000E00180010003000300C3021
:102123000C300C100C18180CE00300000000000029
:10213300000000000000000000000000000000009C
:10214300000C000E000E000F800E800E400E600E7D
:10215300200E100E100E080E040E040EFE7F000E4D
:10216300000E000E000E000E000EC07F00000000E7
:10217300000000000000000000000000000000005C
:10218300F03FF03F10001000100008000800C807DF
:10219300280C1818081000300030003000300C30C4
:1021A3000C3004180418080CF003000000000000B1
:1021B300000000000000000000000000000000001C
:1021C300800FC010203010301800180008000C00D9
:1021D3008C0F6C183C301C600C600C600C600C6045
:1021E3001860182030306018C0070000000000009D
:1021F30000000000000000000000000000000000DC
:10220300F83FF83F1C100C08040804040004000203
:102213000002000100010001800080008000C00076
:10222300C000C000C000C000C000000000000000EB
:10223300000000000000000000000000000000009B
:10224300E007300C18180C300C300C301C303818E8
:102253007008E007B007180E0C1C0638063006306D
:10226300063006300C18180CE003000000000000D4
:10227300000000000000000000000000000000005B
:10228300E00318040C080C1806100630063006305C
:10229300063006380C3C1836F031003000180018B0
:1022A30000180C0C0C060C03F001000000000000E9
:1022B300000000000000000000000000000000001B
:1022C300000000000000000000000000000080018A
:1022D300C003C003800100000000000000000000F4
:1022E30000008001C003C003800100000000000063
:1022F30000000000000000000000000000000000DB
:102303000000000000000000000000000000C0000A
:10231300C0000000000000000000000000000000FA
:10232300000000000000C000C000800080004000EA
:10233300400000000000000000000000000000203A
:10234300001000080004000600038001C0006000C4
:10235300300018000C00180030006000C00080013D
:102363000003000600040008001000200000000025
:10237300000000000000000000000000000000005A
:102383000000000000000000000000000000FE7FCD
:1023930000000000000000000000FE7F00000000BD
:1023A300000000000000000000000000000000002A
:1023B3000000000000000000000000000000040016
:1023C3000800100020006000C00080010003000628
:1023D300000C001800300018000C000600038001F8
:1023E300C00060002000100008000400000000008E
:1023F3000000000000000000000000000000C00713
:102403003018083008600C601C601C601C600030D1
:10241300001C000600018000800080008000000096
:1024230000008001C003C003800100000000000021
:102433000000000000000000000000000000000099
:10244300C0076018103018200C2F8C4D864CC64CDA
:10245300C64C664C66446644662666266615CC1CE6
:102463000C40082018303018C0070000000000009E
:102473000000000000000000000000000000000158
:10248300C001C001C00140016003200320032003F9
:102493003006100610061006F80F080C080C080C7E
:1024A3000C0C0418041806181F7C00000000000020
:1024B3000000000000000000000000000000000019
:1024C300FE07181C18381830183018301830181830
:1024D300180CF807181818301820186018601860BE
:1024E3001860186018301818FE0F00000000000074
:1024F30000000000000000000000000000000000D9
:10250300C0276038103018200C400C40040006002F
:1025130006000600060006000600060006000C4042
:102523000C400C2018303018C007000000000000D9
:102533000000000000000000000000000000000098
:10254300FE03180E18181830183018301860186069
:1025530018601860186018601860186018601830E8
:10256300183018101818180EFE03000000000000A1
:102573000000000000000000000000000000000058
:10258300FE3F183018201860184018001808180863
:10259300180CF80F180C1808180818001800180061
:1025A3001840184018201830FE3F000000000000BB
:1025B3000000000000000000000000000000000018
:1025C300FE7F1870184018C01880180018101810D3
:1025D3001818F81F181818101810180018001800E9
:1025E30018001800180018007E000000000000000A
:1025F30000000000000000000000000000000000D8
:10260300C013701C101018100C200C2004000600BE
:10261300060006000600060006FC063006300C30F5
:102623000C30183018303008C007000000000000DC
:102633000000000000000000000000000000000097
:102643003F7E0C180C180C180C180C180C180C18CE
:102653000C180C18FC1F0C180C180C180C180C1860
:102663000C180C180C180C183F7E0000000000001A
:102673000000000000000000000000000000000057
:10268300F81F8001800180018001800180018001A9
:10269300800180018001800180018001800180012F
:1026A3008001800180018001F81F0000000000000C
:1026B3000000000000000000000000000000000017
:1026C300E07F00060006000600060006000600067E
:1026D30000060006000600060006000600060006C7
:1026E3000006000600060006000600060E060E039E
:1026F3008E01FC000000000000000000000000004C
:102703007E7C181818081804180618021801980176
:102713009801D801B803380318071806180E180CC7
:10272300181C1818183018307EFC00000000000038
:102733000000000000000000000000000000000096
:102743007E00180018001800180018001800180060
:1027530018001800180018001800180018001800B6
:102763001840184018201830FE3F000000000000F9
:102773000000000000000000000000000000000056
:102783001FF81C381C381C381C3C343434343434A3
:10279300343674326432643264326431C431C431E5
:1027A300C431C430C43084309FFC000000000000FA
:1027B3000000000000000000000000000000000016
:1027C3001F7C1C103C103410341074106410E4107F
:1027D300C410C41184118413041304170416041EB3
:1027E300041C041C041C04181F1800000000000033
:1027F30000000000000000000000000000000000D6
:10280300C003300C181808100C300C30066006603A
:1028130006600660066006600660066006600C20BF
:102823000C3008101818300CC00300000000000022
:102833000000000000000000000000000000000095
:10284300FE0F1818183018601860186018601860A8
:1028530018301818F80F180018001800180018007E
:1028630018001800180018007E0000000000000087
:102873000000000000000000000000000000000055
:10288300C003300C18180C100C300C2006600660C6
:102893000660066006600660066006600660E46126
:1028A3002C331C321816300EC007004C007C003845
:1028B3000000000000000000000000000000000015
:1028C300FE07181C1838183018301830183018182C
:1028D300180CF80798031803180718061806180E9B
:1028E300180C180C181C18187E7800000000000043
:1028F30000000000000000000000000000000000D5
:10290300E027303818300C200C200C000C00180085
:102913007800E003800F001E003800700060046040
:102923000460086018303818C80F00000000000069
:102933000000000000000000000000000000000094
:10294300FC3F8C21846182418241800180018001AE
:10295300800180018001800180018001800180016C
:102963008001800180018001E00700000000000079
:102973000000000000000000000000000000000054
:102983003F7C0C100C100C100C100C100C100C10C5
:102993000C100C100C100C100C100C100C100C1054
:1029A3000C100C1008083804E003000000000000BD
:1029B3000000000000000000000000000000000014
:1029C3003EF8182018201820301030103010301026
:1029D300600860086008E00CC004C004C004800301
:1029E3008003800380030001000100000000000059
:1029F30000000000000000000000000000000000D4
:102A0300DFF38661862186218C210C218C238C1394
:102A13008C138C134C1358125816580E380E380E4C
:102A2300380E300C100410041004000000000000E5
:102A33000000000000000000000000000000000093
:102A43007E3E180838083004300470026002E0014A
:102A5300C001C00180018003400340072006200617
:102A6300100C100C081808183E7C00000000000031
:102A73000000000000000000000000000000000053
:102A83007E7C1C10181018083008300C7004600489
:102A93006002C002C002C001800180018001800188
:102AA3008001800180018001E00700000000000038
:102AB3000000000000000000000000000000000013
:102AC300F83F18180818040C040E0006000700034A
:102AD30080038001C001C000E0006000700030008E
:102AE300382018201C100C18FE1F000000000000E6
:102AF30000000000000000000000C03F4000400054
:102B030040004000400040004000400040004000C2
:102B130040004000400040004000400040004000B2
:102B23004000400040004000400040004000C03FE3
:102B3300000000000000000000000000000008008A
:102B430018001800100030002000600060004000F2
:102B5300C000800080018001000100030002000624
:102B630000060004000C00080018001800100030D4
:102B730000200000000000000000FC03000200022F
:102B83000002000200020002000200020002000232
:102B93000002000200020002000200020002000222
:102BA3000002000200020002000200020002FC0315
:102BB300000000000000000000008007C00620089D
:102BC30010100000000000000000000000000000E2
:102BD30000000000000000000000000000000000F2
:102BE30000000000000000000000000000000000E2
:102BF30000000000000000000000000000000000D2
:102C030000000000000000000000000000000000C1
:102C130000000000000000000000000000000000B1
:102C230000000000000000000000000000000000A1
:102C33000000FFFF0000000000007800C00000015A
:102C43000000000000000000000000000000000081
:102C53000000000000000000000000000000000071
:102C63000000000000000000000000000000000061
:102C73000000000000000000000000000000000051
:102C83000000000000000000000000000000F0034E
:102C930018060C0C0C0C000C800F700C1C0C0C0C8C
:102CA300060C060C064C0C4FF83800000000000020
:102CB3000000000000000000000000000000100001
:102CC3001E00180018001800180018001800180F2C
:102CD300D8183830386018601860186018601860A9
:102CE3001860182038307818C8070000000000006A
:102CF30000000000000000000000000000000000D1
:102D03000000000000000000000000000000C007F9
:102D1300700C181818180C180C000C000C000C0080
:102D23000C20182018103008C00700000000000015
:102D33000000000000000000000000000000001080
:102D4300001E001800180018001800180018E01BD7
:102D5300301C181818180C180C180C180C180C1810
:102D63000C180818181C307AE00900000000000055
:102D73000000000000000000000000000000000050
:102D83000000000000000000000000000000C00779
:102D9300300C181808100C300C30FC3F0C000C00E1
:102DA3000C00182018107018C00700000000000065
:102DB3000000000000000000000000000000000010
:102DC300003E80C380C0C0C0C000C000C000FC1F64
:102DD300C000C000C000C000C000C000C000C000F0
:102DE300C000C000C000C000F80F000000000000D9
:102DF30000000000000000000000000000000000D0
:102E03000000000000000000000000000000C07788
:102E1300306C10181818181818181018300CF00700
:102E230018001800F00FF03F08700C600C600C6085
:102E33003838E00F00000000000000000000100020
:102E43001E00180018001800180018001800980F2A
:102E5300D818383018301830183018301830183067
:102E630018301830183018307EFC000000000000C5
:102E7300000000000000000000000000000000004F
:102E83008003800380030000000000000001F801BC
:102E93008001800180018001800180018001800127
:102EA3008001800180018001F81F00000000000004
:102EB300000000000000000000000000000000000F
:102EC3000038003800380000000000000010801FA8
:102ED300001800180018001800180018001800182F
:102EE3000018001800180018001800180018180C13
:102EF3001806F003000000000000000000001000AE
:102F03001E00180018001800180018001800183EBA
:102F1300180C1806180318019801D801380318076C
:102F23001806180C181C18187E7C000000000000FE
:102F3300000000000000000000000000000000018D
:102F4300F8018001800180018001800180018001FE
:102F53008001800180018001800180018001800166
:102F63008001800180018001F81F00000000000043
:102F7300000000000000000000000000000000004E
:102F83000000000000000000000000000800EE1C2C
:102F93009C338C318C318C318C318C318C318C3134
:102FA3008C318C318C318C31DE7B000000000000D1
:102FB300000000000000000000000000000000000E
:102FC30000000000000000000000000010001E0FC1
:102FD300D8183830183018301830183018301830E6
:102FE30018301830183018307EFC00000000000044
:102FF30000000000000000000000000000000000CE
:103003000000000000000000000000000000C007F6
:10301300701C103018300C600C600C600C600C607D
:103023000C60183018303018C00700000000000092
:10303300000000000000000000000000000000008D
:1030430000000000000000000000000010009E0FC0
:103053005818383018201860186018601860186005
:1030630018601830383078189807180018001800BE
:1030730018007E00000000000000000000000000B7
:103083000000000000000000000000000000C0235A
:10309300303C183818300C300C300C300C300C30FD
:1030A3000C3008301838303CE0330030003000304A
:1030B300003000FC000000000000000000000000E1
:1030C30000000000000000000000000060007E3CE3
:1030D30060666061E000E000600060006000600026
:1030E3006000600060006000FE0700000000000058
:1030F30000000000000000000000000000000000CD
:103103000000000000000000000000000000E027B5
:1031130030381830182018007000E003800F001CAE
:10312300043004300C301C18EC0F000000000000C9
:10313300000000000000000000000000000000008C
:1031430000000000800080008000C000E000FC1F41
:10315300C000C000C000C000C000C000C000C0006C
:10316300C000C020C0208011000F0000000000003C
:10317300000000000000000000000000000000004C
:1031830000000000000000000000000010201E3CB2
:1031930018301830183018301830183018301830EC
:1031A30018301830183830F4E01300000000000025
:1031B300000000000000000000000000000000000C
:1031C30000000000000000000000000000007E3C42
:1031D30018181808380830043004700260026002BE
:1031E300E001C001C001C000800000000000000039
:1031F30000000000000000000000000000000000CC
:103203000000000000000000000000000000DFF7E5
:103213008E630C238C238C239813981358165816FB
:10322300700E700E700E20042004000000000000D9
:10323300000000000000000000000000000000008B
:103243000000000000000000000000000000FC3E41
:1032530070087004E004C002C001800380034007CB
:103263006006200C100C18183E7E000000000000C1
:10327300000000000000000000000000000000004B
:1032830000000000000000000000000000007E7C41
:103293001818180830083008300460046004C002AD
:1032A300C002C00280018001800180008000800094
:1032B3004C003C0000000000000000000000000083
:1032C3000000000000000000000000000000FC1FE0
:1032D3000C0C040E0406000380038001C000E00010
:1032E3007020302038301C18FC1F00000000000044
:1032F300000000000000000000000030000800048F
:10330300000400040004000400040004000400049A
:103313000004000280010002000400040004000411
:103323000004000400040004000400040004000876
:103333000030000000010001000100010001000154
:103343000001000100010001000100010001000172
:103353000001000100010001000100010001000162
:103363000001000100010001000100010001000152
:10337300000100010000000000000C00100020000C
:10338300200020002000200020002000200020003A
:103393002000400080014000200020002000200089
:1033A300200020002000200020002000200010002A
:1033B3000C00000000003800C400864002610022B7
:1033C300001C0000000000000000000000000000DE
:1033D30000000000000000000000000000000000EA
:1033E30000000000000000000000000000000000DA
:1033F30000000000D6D0200020002000FE0322029F
:1034030022022202FE032202200020002000BEB07E
:10341300FC010401FC010401FC012000FF0704017D
:10342300FC01200024013202D4B0FE070204FA0496
:1034330002040204FE05520452044A0586050204EE
:10344300FE07B5E710001000FF0111011101FF0194
:1034530011011101FF0111041004E007D7D300008B
:10346300FC018000400020002000FF072000200016
:10347300200020003800D6D080008000800080002B
:10348300FC1F84108410841084108410FC1F84108B
:103493008000800080008000BEB0F80F0808F80F9D
:1034A3000808F80F8000FF7F0000F80F08080808DD
:1034B300F80F80008410A2204000D4B00000FE3F2B
:1034C3000220F22702200220FA2F22212221222188
:1034D300122912290A2E0220FE3F0220B5E780009E
:1034E30080008000FC1F841084108410FC1F841053
:1034F30084108410FC1F845080408040007FD7D309
:103503000000FE1F00080004000280018000FF7F0E
:10351300800080008000800080008000A0004000C8
:10352300D6D00000000000000018000008000008CA
:1035330000000800080818F8FF1F180818180818D2
:10354300180818180818180818180818F8FF1F087A
:103553000808000800000800000800000800001820
:1035630000001800001800000000BEB000000000BA
:103573000000400006C0FF07400006C0FF074000F0
:1035830006C0FF07400802003000FEFF3F000000B6
:10359300C0FF07C00002C00002C00002C0FF0380DA
:1035A300100080110160100E3010180C1E30001C2A
:1035B30000000000D4B0000000000000080030F854
:1035C300FF1F08001008C010083F10080010080073
:1035D30010080013C8FF1008221008221008221038
:1035E30008221008211208211488601648C01328E5
:1035F3000010080010F8FF1F080010000000B5E7D6
:10360300000000000000001800000800000800008F
:103613000800F0FF0F100804100804100804100835
:1036230004F0FF071008041008041008041008042D
:10363300F0FF071008000008100008100008200021
:10364300183000F01F000000D7D300000000000076
:10365300000004F0FF0F00000600000100C000009E
:103663002800001800001800001830FEFF7F001823
:1036730000001800001800001800001800001800CF
:10368300001800001800001800001F00000C0000C4
:103693000000D6D000000000000000000080000001
:1036A3000080010000800100008001000080010013
:1036B300008001001080010CF0FFFF0F3080010437
:1036C3003080010430800104308001043080010423
:1036D300308001043080010430800104F0FFFF07D3
:1036E300308001043080010400800100008001006B
:1036F30000800100008001000080010000800100C3
:1037030000800100008001000080010000800000B3
:1037130000000000BEB00000000000000000000038
:1037230000000001800100FFFF010003800100038E
:10373300800100FFFF01000380010003800100FFFF
:10374300FF0100818100000003000000031CFCFF57
:10375300FF3F000040000003C00100FFFF01000322
:10376300C0000003C0000003C00000FFFF00000111
:10377300410000040100000E710000078101800177
:1037830001076000010E1898011C04E0011800C035
:10379300000000000000D4B00000000000000000A2
:1037A30000000008F0FFFF1F3000000C3000000C89
:1037B3003000100C30FE3F0C3004000C3000000CC5
:1037C3003000000C3000000C3000C00CF0FFFF0D87
:1037D3003030060E3030060C3010060C3010060C5C
:1037E3003010060C3018860C3018860C3008060D85
:1037F300300C860D3006EE0F3002FC0D3001000C4C
:10380300F000000C3000000CF0FFFF0F3000000C44
:103813001000000400000000B5E7000000000000F5
:10382300000000C0000000C0010000C0000000C094
:10383300000000C0000000C00000E0FFFF0360C004
:10384300000360C0000360C0000360C0000360C0E9
:10385300000360C00003E0FFFF0360C0000360C01B
:10386300000360C0000360C0000360C00003E0FF0A
:10387300FF0360C0000160C0000000C0000800C07A
:10388300001000C0001000C0001800C00138008004
:10389300FF1F0000000000000000D7D3000000005D
:1038A300000000000000000000000003C0FFFF074D
:1038B300000080070000C000000060000000180046
:1038C30000000C0000800300008003000080010062
:1038D300008001080080011CFCFFFF3F0080010005
:1038E30000800100008001000080010000800100D1
:1038F30000800100008001000080010000800100C1
:1039030000800100008001000080010000FC010034
:0C39130000E00000004000000000000088
:10638300900004EEF0A3EFF0A3ECF0A3EDF0A3EA8A
:04639300F0A3EBF098
:10639700C006C00724FFFBEA34FFFAA3E0FEA3E030
:1063A70024FFFFEE34FF900038F0A3EFF0D007D0C2
:1063B70006126569900006E0FFA3E090000ECFF09B
:1063C700A3EFF090000AE0FEA3E0FFC390000FE008
:1063D7009F90000EE09E504F900004E0FFA3E090D6
:1063E7000010CFF0A3EFF0900008E0FEA3E0FFC39A
:1063F700900011E09F900010E09E501B90000CE071
:10640700FEA3E0FF1265EC900011E004F070D89055
:106417000010E004F080D090000FE004F070A4902A
:07642700000EE004F0809C70
:01642E00224B
:1064B90090005FFEE0FCA3E0FDC390005BE09DFD62
:0E64C90090005AE09CFC90005DE0FAA3E0FB1E
:1064D70090002CEEF0A3EFF0900030EAF0A3EBF081
:1064E70090002EECF0A3EDF090002CE0FAA3E0FB77
:1064F700FFAE02C007A3E0FFA3E0900038CFF0A3F0
:10650700EFF0D007126569900030E0FEA3E0FF02CC
:0265170065EC31
:0E568A0090003AEEF0A3EFF0A3ECF0A3EDF0E9
:10569800E4900046F0A3F0A3F0A3F090003AE0FEF7
:1056A800A3E0FFC3EB9FFFEA9E90004AF0A3EFF050
:1056B80090003CE0FAA3E0FBC3900041E09BFE9021
:1056C8000040E09A90004CF0A3CEF090003AE0FF42
:1056D800A3E0900054CFF0A3EFF0A3EAF0A3EBF01F
:1056E80090004AE0FEA3E0FFD39400EE648094802B
:1056F800400A900050E4F0A304F08021EF4E7008B7
:10570800900050F0A3F0801574FF900050F0A3F0C3
:10571800C3E49FFFE49E90004AF0A3EFF090004C92
:10572800E0FEA3E0FFD39400EE64809480400A90EA
:105738000052E4F0A304F08021EF4E70089000526C
:10574800F0A3F0801574FF900052F0A3F0C3E49F1B
:10575800FFE49E90004CF0A3EFF090004CE0FEA315
:10576800E0FF90004AE0FCA3E0FDD39FEE6480F8E0
:10577800EC64809890004E4007ECF0A3EDF08005B3
:10578800EEF0A3EFF0E4900044F0A3F090004FE0B7
:105798002401FF90004EE03400FEC3900045E09FD6
:1057A800900044E09E4003025877900054E0FEA326
:1057B800E0FFA3E0FCA3E0FD9000421264D2900059
:1057C8004AE0FEA3E0FF900047E02FF0900046E09B
:1057D8003EF090004CE0FEA3E0FF900049E02FF07F
:1057E800900048E03EF090004EE0FEA3E0FF9000FD
:1057F80046E0FCA3E0FDD39FEE6480F8EC6480985B
:105808004020ED9FFFEC9E900046F0A3EFF0900043
:1058180050E0FEA3E0FF900055E02FF0900054E028
:105828003EF090004EE0FEA3E0FF900048E0FCA3AD
:10583800E0FDD39FEE6480F8EC6480984020ED9FF3
:10584800FFEC9E900048F0A3EFF0900052E0FEA31A
:10585800E0FF900057E02FF0900056E03EF09000F7
:0F58680045E004F07006900044E004F00257940D
:01587700220E
:10629D00900067EAF0A3EBF0900063EEF0A3EFF04F
:1062AD00A3ECF0A3EDF0C007A3E0FAA3E0FB900090
:1062BD0065E0FFA3E0900040CFF0A3EFF090006BFE
:1062CD00E0FFA3E0900042CFF0A3EFF0D00712560D
:1062DD008A900063E0FAA3E0FBFFAE02C007A3E0E3
:1062ED00FCA3E0FD900069E0FFA3E0900040CFF03B
:1062FD00A3EFF090006BE0FFA3E0900042CFF0A37E
:10630D00EFF0D00712568A900069E0FCA3E0FD90F3
:10631D000067E0FAA3E0FBA3E0FFA3E0900040CF0D
:10632D00F0A3EFF090006BE0FFA3E0900042CFF000
:10633D00A3EFF0900063E0FEA3E0FF12568A9000F9
:10634D0067E0FAA3E0FBFFAE02C007900065E0FC3A
:10635D00A3E0FD900069E0FFA3E0900040CFF0A323
:10636D00EFF090006BE0FFA3E0900042CFF0A3EFC1
:06637D00F0D00702568A71
:105A6000900058EEF0A3EFF0A3ECF0A3EDF0A3EB61
:015A7000F045
:105A7100E490005FF0A3F0EBFFA3E4F0A3EFF0905C
:105A81000061E0FEA3E0FFD3900060E09FEE648040
:105A9100F890005FE06480984003025BFFC39000D0
:105AA10059E09FFF900058E09E1264B9900061E0B8
:105AB100FEA3E0FF900059E02FFF900058E03E1256
:105AC10064B990005FE0FEA3E0FFC3900059E09F3E
:105AD100FF900058E09EFE900061E0FCA3E0FD9085
:105AE100005BE02DFD90005AE03C1264CE90005F17
:105AF100E0FEA3E0FFC3900059E09FFF900058E053
:105B01009E9000611264BC900061E0FEA3E0FF90F2
:105B11000059E02FFF900058E03EFE90005FE0FC4E
:105B2100A3E0FD90005BE02DFD90005AE03C126483
:105B3100CE90005FE0FEA3E0FF900059E02FFF90C0
:105B41000058E03EFE9000611264BD90005FE0FEEF
:105B5100A3E0FF900059E02FFF900058E03EFE9037
:105B61000061E0FCA3E0FD90005BE02DFD90005A98
:105B7100E03C1264CE900061E0FEA3E0FFC3900020
:105B810059E09FFF900058E09EFE90005FE0FCA36B
:105B9100E0FD90005BE02DFD90005AE03C1264CEE8
:105BA100900060E004F0700690005FE004F0900067
:105BB10061E0FCA3E0FDFFAE0412487DAA06AB073D
:105BC10090005FE0FCA3E0FDFFAE0412487DEF2BE7
:105BD100FDEE3AFC90005CE0F5F0A4FFD3ED9FE50B
:105BE100F06480F8EC6480985003025A809000625F
:0E5BF100E024FFF0900061E034FFF0025A80E3
:015BFF002283
:105C0000900004EEF0A3EFF0A3ECF0A3EDF0A3EB13
:105C1000F0A3EAF0A3E9F0900008E0FBA3E0FAA308
:105C2000E0F91248377003025D8A90000FE0640CBF
:105C30007044900006E0FCA3E0FD90000BE0FFA3A1
:105C4000E0900018CFF0A3EFF090000DE0FFA3E08C
:105C500090001ACFF0A3EFF090000FE090001CF03E
:105C6000900010E090001DF0900004E0FEA3E0FF23
:105C7000124F25025D6B90000FE06410704B900096
:105C800006E0FCA3E0FDA3E0FBA3E0FAA3E0F9A398
:105C9000E0FFA3E0900018CFF0A3EFF090000DE03C
:105CA000FFA3E090001ACFF0A3EFF090000FE09078
:105CB000001CF0900010E090001DF0900004E0FE49
:105CC000A3E0FF1251A9025D6B90000FE064187011
:105CD0004A900006E0FCA3E0FDA3E0FBA3E0FAA3EA
:105CE000E0F9A3E0FFA3E0900018CFF0A3EFF0905D
:105CF000000DE0FFA3E090001ACFF0A3EFF09000BA
:105D00000FE090001CF0900010E090001DF090005B
:105D100004E0FEA3E0FF124A19805090000FE064F7
:105D2000207067900006E0FCA3E0FDA3E0FBA3E089
:105D3000FAA3E0F9A3E0FFA3E0900018CFF0A3EFEF
:105D4000F090000DE0FFA3E090001ACFF0A3EFF079
:105D500090000FE090001CF0900010E090001DF00B
:105D6000900004E0FEA3E0FF124C9F900009E47550
:105D7000F00212488F90000FE0FF900005E02FF036
:0B5D8000900004E03400F0025C1722E9
:104F2500900013ECF0A3EDF0A3EBF0A3EAF0A3E9F6
:094F3500F0900011EEF0A3EFF082
:104F3E00E4900020F0900027EEF0A3EFF090001C1C
:104F4E00E0FF131313541FFD7C00EF54077E006027
:104F5E00047F0180027F00EF2DFFEE3CFE90001CCF
:104F6E00E0FD7C0012487D900025EEF0A3EFF0905E
:104F7E000023E4F0A37405F0E4900021F0A3F09078
:104F8E000023E0FEA3E0FF900021E0FCA3E0FDC3C0
:104F9E009FEC9E40030251A8900015E0FBA3E0FA9F
:104FAE00A3E0F9124837FF9033F775F01AED124A65
:104FBE000DEC75F01AA42583F583E4936F6003025C
:104FCE005197900001124850FF900021A3E09033BA
:104FDE00F875F01A124A0DEC75F01AA42583F583B4
:104FEE00E4936F6003025197900013E0FCA3E0FD81
:104FFE0090001CE0F9FF7E00900011E0FAA3E02F74
:10500E00FFEE3ACF24FFFBEF34FFFAE9FFA3E0F8FF
:10501E00A3E02FFFEE38CF24FFCF34FF900038F0FF
:10502E00A3EFF0900011E0FEA3E0FF126569E4909B
:10503E00001EF090001EE0FFD3900026E09F90002F
:10504E0025E094005003025197E490001FF0900069
:10505E001DE07077900021A3E075F01AA424F9F5F5
:10506E0082E43433F583C083C08290001EE0D08288
:10507E00D0832582F582E43583F583E493FD7C00AD
:10508E0090001FE0FF74017E00A807088005C3335F
:10509E00CE33CED8F9FFEE5CFEEF5D4E600590008C
:1050AE0018800390001AE0FEA3E0FF1265EC90005A
:1050BE0020E004F090001CE0FF900020E08FF084D0
:1050CE00E5F0600302517FF002518E900021A3E0C3
:1050DE0075F01AA424F9F582E43433F583C083C045
:1050EE008290001EE0D082D0832582F582E4358343
:1050FE00F583E493FD7C0090001FE0FF74017E00B9
:10510E00A807088005C333CE33CED8F9FFEE5CFE78
:10511E00EF5D4E6014900011E0FEA3E0FFA3E0FCF3
:10512E00A3E0FD9000181264D2900012E004F0701B
:10513E0006900011E004F0900027E0FEA3E0FFC30C
:10514E00900012E09FFD900011E09EFC90001CE08C
:10515E007A00B5051CEAB50418900011EEF0A3EF25
:10516E00F0900014E004F07017900013E004F0804B
:10517E000F90001FE004F0E0C39408500302505C4F
:10518E0090001EE004F0025041900022E004F07006
:0A519E0006900021E004F0024F8D9E
:0151A80022E4
:1051A900900013ECF0A3EDF0A3EBF0A3EAF0A3E970
:0951B900F0900011EEF0A3EFF0FC
:1051C200E4900020F0900027EEF0A3EFF090001C96
:1051D200E0FF131313541FFD7C00EF54077E0060A1
:1051E200047F0180027F00EF2DFFEE3CFE90001C49
:1051F200E0FD7C0012487D900025EEF0A3EFF090D8
:105202000023E4F0A37405F0E4900021F0A3F090F1
:105212000023E0FEA3E0FF900021E0FCA3E0FDC339
:105222009FEC9E400302542C900015E0FBA3E0FA91
:10523200A3E0F9124837FF90347975F022ED124A53
:105242000DEC75F022A42583F583E4936F600302CD
:10525200541B900001124850FF900021A3E09034AB
:105262007A75F022124A0DEC75F022A42583F5839B
:10527200E4936F600302541B900013E0FCA3E0FD73
:1052820090001CE0F9FF7E00900011E0FAA3E02FED
:10529200FFEE3ACF24FFFBEF34FFFAE9FFA3E0F879
:1052A200A3E02FFFEE38CF24FFCF34FF900038F079
:1052B200A3EFF0900011E0FEA3E0FF126569E49015
:1052C200001EF090001EE0FFD3900026E09F9000A9
:1052D20025E09400500302541BE490001FF090005C
:1052E2001DE07077900021A3E075F022A4247BF5E5
:1052F20082E43434F583C083C08290001EE0D08201
:10530200D0832582F582E43583F583E493FD7C0026
:1053120090001FE0FF74017E00A807088005C333D8
:10532200CE33CED8F9FFEE5CFEEF5D4E6005900005
:1053320018800390001AE0FEA3E0FF1265EC9000D3
:1053420020E004F090001CE0FF900020E08FF08449
:10535200E5F06003025403F0025412900021A3E02E
:1053620075F022A4247BF582E43434F583C083C033
:105372008290001EE0D082D0832582F582E43583BC
:10538200F583E493FD7C0090001FE0FF74017E0032
:10539200A807088005C333CE33CED8F9FFEE5CFEF2
:1053A200EF5D4E6014900011E0FEA3E0FFA3E0FC6D
:1053B200A3E0FD9000181264D2900012E004F07095
:1053C20006900011E004F0900027E0FEA3E0FFC386
:1053D200900012E09FFD900011E09EFC90001CE006
:1053E2007A00B5051CEAB50418900011EEF0A3EF9F
:1053F200F0900014E004F07017900013E004F080C5
:105402000F90001FE004F0E0C3940850030252E042
:1054120090001EE004F00252C5900022E004F070F9
:0A54220006900021E004F002521190
:01542C00225D
:104A1900900013ECF0A3EDF0A3EBF0A3EAF0A3E907
:094A2900F0900011EEF0A3EFF093
:104A3200E4900020F0900027EEF0A3EFF090001C2D
:104A4200E0FF131313541FFD7C00EF54077E006038
:104A5200047F0180027F00EF2DFFEE3CFE90001CE0
:104A6200E0FD7C0012487D900025EEF0A3EFF0906F
:104A72000023E4F0A37405F0E4900021F0A3F09089
:104A82000023E0FEA3E0FF900021E0FCA3E0FDC3D1
:104A92009FEC9E4003024C9E900015E0FBA3E0FABF
:104AA200A3E0F9124837FF90352375F04AED124A18
:104AB2000DEC75F04AA42583F583E4936F6003023D
:104AC2004C8D900001124850FF900021A3E09035D8
:104AD2002475F04A124A0DEC75F04AA42583F58339
:104AE200E4936F6003024C8D900013E0FCA3E0FDA1
:104AF20090001CE0F9FF7E00900011E0FAA3E02F85
:104B0200FFEE3ACF24FFFBEF34FFFAE9FFA3E0F810
:104B1200A3E02FFFEE38CF24FFCF34FF900038F010
:104B2200A3EFF0900011E0FEA3E0FF126569E490AC
:104B3200001EF090001EE0FFD3900026E09F900040
:104B420025E094005003024C8DE490001FF0900089
:104B52001FE0FFC394084003024C8490001DE070E4
:104B620071A3E0FE900021E0FCA3E090352575F0F2
:104B72004A124A0DEC75F04AA42583F583E5822E8C
:104B8200F582E43583F583E493FD7C0074017E00B5
:104B9200A807088005C333CE33CED8F9FFEE5CFEFA
:104BA200EF5D4E6005900018800390001AE0FEA3AE
:104BB200E0FF1265EC900020E004F090001CE0FFA2
:104BC200900020E08FF084E5F06003024C7BF0025D
:104BD2004C8490001EE0FF900021E0FCA3E09035A1
:104BE2002575F04A124A0DEC75F04AA42583F58327
:104BF200E5822FF582E43583F583E493FD7C009012
:104C0200001FE0FF74017E00A807088005C333CEB1
:104C120033CED8F9FFEE5CFEEF5D4E6014900011CA
:104C2200E0FEA3E0FFA3E0FCA3E0FD900018126405
:104C3200D2900012E004F07006900011E004F090AF
:104C42000027E0FEA3E0FFC3900012E09FFD90006A
:104C520011E09EFC90001CE07A00B5051CEAB50448
:104C620018900011EEF0A3EFF0900014E004F07041
:104C720011900013E004F0800990001FE004F0029C
:104C82004B5090001EE004F0024B35900022E004ED
:0C4C9200F07006900021E004F0024A815E
:014C9E0022F3
:104C9F00900013ECF0A3EDF0A3EBF0A3EAF0A3E97F
:094CAF00F0900011EEF0A3EFF00B
:104CB800E4900020F0900027EEF0A3EFF090001CA5
:104CC800E0FF131313541FFD7C00EF54077E0060B0
:104CD800047F0180027F00EF2DFFEE3CFE90001C58
:104CE800E0FD7C0012487D900025EEF0A3EFF090E7
:104CF8000023E4F0A37405F0E4900021F0A3F09001
:104D08000023E0FEA3E0FF900021E0FCA3E0FDC348
:104D18009FEC9E4003024F24900015E0FBA3E0FAAD
:104D2800A3E0F9124837FF90369575F082ED124AE4
:104D38000DEC75F082A42583F583E4936F6003027C
:104D48004F13900001124850FF900021A3E09036C5
:104D58009675F082124A0DEC75F082A42583F583CE
:104D6800E4936F6003024F13900013E0FCA3E0FD8F
:104D780090001CE0F9FF7E00900011E0FAA3E02FFC
:104D8800FFEE3ACF24FFFBEF34FFFAE9FFA3E0F888
:104D9800A3E02FFFEE38CF24FFCF34FF900038F088
:104DA800A3EFF0900011E0FEA3E0FF126569E49024
:104DB800001EF090001EE0FFD3900026E09F9000B8
:104DC80025E094005003024F13E490001FF0900078
:104DD8001FE0FFC394084003024F0A90001DE070D3
:104DE80071A3E0FE900021E0FCA3E090369775F0F7
:104DF80082124A0DEC75F082A42583F583E5822E94
:104E0800F582E43583F583E493FD7C0074017E002C
:104E1800A807088005C333CE33CED8F9FFEE5CFE71
:104E2800EF5D4E6005900018800390001AE0FEA325
:104E3800E0FF1265EC900020E004F090001CE0FF19
:104E4800900020E08FF084E5F06003024F01F0024B
:104E58004F0A90001EE0FF900021E0FCA3E090368E
:104E68009775F082124A0DEC75F082A42583F583BC
:104E7800E5822FF582E43583F583E493FD7C009089
:104E8800001FE0FF74017E00A807088005C333CE29
:104E980033CED8F9FFEE5CFEEF5D4E601490001142
:104EA800E0FEA3E0FFA3E0FCA3E0FD90001812647D
:104EB800D2900012E004F07006900011E004F09027
:104EC8000027E0FEA3E0FFC3900012E09FFD9000E2
:104ED80011E09EFC90001CE07A00B5051CEAB504C0
